:10000000AFC00000D7C00000D5C00000D3C00000C2
:10001000D1C00000CFC00000CDC00000CBC00000A8
:10002000C9C00000C7C00000C5C00000C3C00000B8
:10003000C1C00000BFC00000BDC00000BBC00000C8
:10004000B9C00000B7C00000B5C00000B3C00000D8
:100050000C942A16AFC00000ADC000000C94DB1554
:10006000A9C000000C94E5160C941717A3C000005B
:10007000A1C00000A0C000009DC000009BC0000007
:1000800099C0000097C0000095C0000093C0000018
:100090000C9459170C948A178DC000008BC0000077
:1000A00089C0000087C0000085C0000083C0000038
:1000B00081C000007FC000007DC000007BC0000048
:1000C00079C0000077C0000075C000000C94FC17D8
:1000D0000C942E186FC000000C9497180C94C9183B
:1000E00069C0000084076307660769076C076F072C
:1000F0007207750778077B077E07B107900793079C
:10010000960799079C079F07A207A507A807AB07B3
:1001100052083108340837083A083D0840084308B7
:10012000460849084C08A40EA90EAC0EB00EB30E3A
:10013000C70EBE0EC10E320F370F3A0F3E0F4D0FD6
:10014000410F440F470FC016C316C716CB16CF1664
:10015000D316D716DB162F06CF0A660D1915CB1549
:1001600011241FBECFEFD1E2DEBFCDBF12E0A0E071
:10017000B2E0EAECFFE300E00BBF02C007900D9293
:10018000A03CB107D9F729E0A0ECB2E001C01D9274
:10019000AC3CB207E1F710E0C0EBD0E004C021971F
:1001A000FE010E946F1BCB3AD107C9F70E942E14A3
:1001B0000C94E31F25CF1F920F920FB60F921124BC
:1001C0008F9381E08093C0028F910F900FBE0F90AC
:1001D0001F901895ECE7F0E080818064808308959B
:1001E000CF93DF93EC01ECE7F0E09081907E908379
:1001F000ABE7B0E09C91977F9C9390818881892B9D
:100200008083DF91CF910895EAE7F0E080818760F5
:1002100080830895EAE7F0E0808180688083089514
:10022000CF93DF93EC0178946883D4DFEEE7F0E0BE
:1002300080818FEF8083CE01E7DFCE01EBDFDF919E
:10024000CF9108951092C002EAE7F0E080818860C3
:1002500080838081806480830895CF93DF93EC0155
:10026000BFDFCE01EFDF8091C0028823E1F3209150
:1002700078008091790090E0982F8827820F911D57
:10028000DF91CF910895FC015183408388E090E095
:100290000E94B71744E650E060E070E081EF92E022
:1002A0000E946C154CE251E060E070E085EE92E057
:1002B0000E946C1540ED57E060E070E089ED92E03F
:1002C0000E946C1542EF53E060E070E08DEC92E02C
:1002D0000C946C15089589ED92E00E94A515882371
:1002E00071F08DEC92E00E94211560E070E081E0F9
:1002F0000E94721460E070E084E00C94721408951F
:1003000080E30E948C1421E0892B09F420E0822FE5
:100310000895CF93C0E080E48C0F0E948C14892B49
:1003200019F081E08C0F04C0CF5FC031A1F78FEFCF
:10033000CF910895CF92DF92EF92FF920F931F9388
:10034000CF93DF93EB018A0185E20E948C1425E5AF
:1003500030E0DC010E94871B6B017C01992334F49F
:100360002FEFC20E23E0D21EE11CF11CD701C60103
:10037000072E7AE0B595A795979587957A95D1F749
:10038000702D6C017D012FE0C20ED11CE11CF11C0F
:1003900085E30E948C14892B31F0D194C194D1084B
:1003A0003C2D2D2D0AC084E30E948C14892B19F05A
:1003B0003C2D2D2D02C020E030E0D801EC9181E0F1
:1003C0008E0F8C93F0E0CF01880F991FE80FF91F73
:1003D000EC0FFD1F84E0808331832283DF91CF9176
:1003E0001F910F91FF90EF90DF90CF9008950F93A2
:1003F0001F93CF93DF938B01EA0181E30E948C145A
:10040000892B91F487E30E948C14892B81F482E379
:100410000E948C14892B71F488E30E948C14892B20
:1004200061F080E094E60BC08FEF9CE908C08FEF8D
:100430009CE905C080E094E602C080E090E0E8819D
:1004400021E02E0F2883F0E09F01220F331FE20FDF
:10045000F31FE00FF11F25E0208391838283DF915A
:10046000CF911F910F9108952F923F924F925F92DB
:100470006F927F928F929F92AF92BF92CF92DF92B4
:10048000EF92FF920F931F93CF93DF9300D000D092
:1004900000D0CDB7DEB78B015E834D8380E20E9432
:1004A0008C146C0181E20E948C147C0185E20E9414
:1004B0008C1425E530E0DC010E94871B28EE33E038
:1004C00040E050E00E94531B29013A018FE0480EA2
:1004D000511C611C711C9701ADECBCEC0E94781B97
:1004E0009695879596958795BC0164567109072E58
:1004F000000C880B990B0E940F1A4B015C019601AE
:10050000ADECBCEC0E94781B9695879596958795E7
:10051000BC0164567109072E000C880B990B0E94D0
:100520000F1A20E030E040E05FE30E94BF1A6B0149
:100530007C019B01AC01C501B4010E940C190E9411
:10054000DC1969837A838B839C83A7019601C5019B
:10055000B4010E940B190E94DC1929813A812C39BF
:10056000EFEF3E0714F42CE93FEF1B016C397F4F8E
:1005700034F40F2EFCE92F2E33243A94F02D8824E6
:10058000992484189508092C000CAA08BB08052C8E
:10059000000C66087708481859086A087B08253651
:1005A000310514F024E630E0C901330FAA0BBB0B70
:1005B0009C01AD012C593F4F4F4F5F4FC301B2011A
:1005C0000E94221B28EC30E040E050E00E94531BC8
:1005D00069017A01C80CD91CEA1CFB1CDA82C982A9
:1005E00091012536310514F024E630E0C901330FBE
:1005F000AA0BBB0B9C01AD012C593F4F4F4F5F4FD6
:10060000C301B2010E94221B28EC30E040E050E020
:100610000E94531B820E931EA41EB51EC401298185
:100620003A8133235CF49601DD2024F4222733271A
:100630002C193D09CC24DD24C21AD30A99235CF479
:100640009401992024F42227332728193909882472
:100650009924821A930AED81FE81808190E0FC0149
:10066000EE0FFF1F8E0F9F1FF801E80FF91F81E0AB
:100670008083ED81FE81808190E0FC01EE0FFF1F01
:100680008E0F9F1FF801E80FF91FC182ED81FE81D7
:10069000808190E0FC01EE0FFF1F8E0F9F1FF8017D
:1006A000E80FF91FD282ED81FE8180818F5F808308
:1006B00090E0FC01EE0FFF1F8E0F9F1FF801E80F67
:1006C000F91F82E08083ED81FE81808190E0FC0152
:1006D000EE0FFF1F8E0F9F1FF801E80FF91F818299
:1006E000ED81FE81808190E09C01220F331F820FFB
:1006F000931FF801E80FF91F9282ED81FE8180813E
:100700008F5F808326960FB6F894DEBF0FBECDBFF5
:10071000DF91CF911F910F91FF90EF90DF90CF90DD
:10072000BF90AF909F908F907F906F905F904F9011
:100730003F902F9008958F929F92AF92BF92CF9249
:10074000DF92EF92FF920F931F93CF93DF938B0172
:10075000EA0183E20E948C149C01ADECBCEC0E9487
:10076000781B96958795969587957C0124E6E21AE5
:10077000F10884E20E948C1425E530E0DC010E943F
:10078000871B28EE33E040E050E00E94531B4901F4
:100790005A018FE0880E911CA11CB11CC7012CE9E5
:1007A000E2162FEFF20614F48CE99FEFCC24DD243F
:1007B000C818D9080D2C000CEE08FF089C018536DE
:1007C000910514F024E630E0C901330FAA0BBB0BEE
:1007D0009C01AD012C593F4F4F4F5F4FC401990C05
:1007E000AA0BBB0BBC01CD016C197D098E099F09B9
:1007F0000E94221B28EC30E040E050E00E94531B96
:10080000C20ED31EE41EF51E888190E0FC01EE0F9F
:10081000FF1F8E0F9F1FF801E80FF91F83E08083F1
:10082000888190E0FC01EE0FFF1F8E0F9F1FF801E3
:10083000E80FF91FC182888190E09C01220F331FCD
:10084000820F931FF801E80FF91FD28288818F5F12
:100850008883DF91CF911F910F91FF90EF90DF90F0
:10086000CF90BF90AF909F908F900895FF920F937D
:100870001F93CF93DF9300D01F92CDB7DEB74423F1
:1008800061F1A62FB72FF12C20E08E010C5F1F4FD6
:100890007CE88C91898311968C9111978A831296AA
:1008A0008C9112978B83FE013196519138E0622F23
:1008B0006527822F90E095958795282F60FF02C0CD
:1008C000272F28275695315091F7E017F10769F740
:1008D000F39413964F11DDCF01C020E0822F0F90CB
:1008E0000F900F90DF91CF911F910F91FF9008957E
:1008F000DF92EF92FF920F931F93CF93DF937B01D1
:10090000142FB4DFD82E86E00E94E81785E80E94F5
:10091000E81784E00E94E81781E00E94E817812F21
:10092000880F810F0E94E8171123C1F0E701412FC2
:1009300050E08A01000F111F400F511F8701040F63
:10094000151F88810E94E81789810E94E8178A8113
:100950000E94E8172396C017D10799F78D2D0E94A2
:10096000E817DF91CF911F910F91FF90EF90DF90EB
:1009700008950F931F93CF93DF93CDB7DEB76097A2
:100980000FB6F894DEBF0FBECDBF8C01188AAE0142
:10099000405F5F4FBE016F5F7F4F66DDAE01405F1E
:1009A0005F4FBE016F5F7F4FC801C5DEAE01405F84
:1009B0005F4FBE016F5F7F4FC801BCDCAE01405F7F
:1009C0005F4FBE016F5F7F4FC80111DD45E0BE0183
:1009D0006F5F7F4FC8018CDF60960FB6F894DEBF63
:1009E0000FBECDBFDF91CF911F910F910895CF9290
:1009F000DF92EF92FF920F931F93CF93DF9300D07C
:100A00001F92CDB7DEB76C017C018BE9E80EF11CBB
:100A1000C70194D1C701F2D18823D1F0C70105D213
:100A2000082F882391F010E082E0C80ED11C612FBE
:100A3000C7019DD169837A838B83BE016F5F7F4F2E
:100A4000C6012BD11F5F0113F2CFC7018DD106C0A4
:100A5000C70182D1882311F0C70186D10F900F9072
:100A60000F90DF91CF911F910F91FF90EF90DF904A
:100A7000CF900895CF93DF93EC010E94CB179C0198
:100A80002227232B49F4682FCE01B1DF0E94CB1718
:100A90009C012227232BB9F3DF91CF910895DF9298
:100AA000EF92FF920F931F93CF93DF937C01E2DFCE
:100AB00082E0E80EF11CC7013BD1882349F1C70150
:100AC00017D1162FD72EC82F862F0E94991488234E
:100AD000A9F0D0E0DC2FCC27CD0DD11D183051F47A
:100AE000209741F488E00E948C1460E070E0815C03
:100AF0000E947214BE01812F0E94721489ED92E04F
:100B00000E94211561E070E084E00E947214D3CF4E
:100B1000DF91CF911F910F91FF90EF90DF9008959B
:100B20000F931F93CF93DF93CDB7DEB765970FB6C3
:100B3000F894DEBF0FBECDBF8C0181E089831A829D
:100B40001B8282E08C831D821E8283E08F83188645
:100B5000198684E08A871B861C8685E08D871E8621
:100B60001F8688E0888B198A1A8A89E08B8B1C8AF9
:100B70001D8A47E0BE016F5F7F4FC801B9DEC80123
:100B80008EDF65960FB6F894DEBF0FBECDBFDF9146
:100B9000CF911F910F9108950F931F93CF93DF93E0
:100BA00000D000D000D0CDB7DEB78C0188E08983BB
:100BB0006A831B8289E08C831D821E82C801825356
:100BC0009F4F0E94211542E0BE016F5F7F4FC80119
:100BD0008FDEC80164DF26960FB6F894DEBF0FBE25
:100BE000CDBFDF91CF911F910F9108950F931F9368
:100BF000CF93DF93EC0153DFCE0182DB882319F022
:100C0000CE018EDF27C088E00E948C14892B11F55D
:100C100081EC92E00E947F15882311F0CE01A9DEBD
:100C2000CE0177DB082F880F110B0F3F8FEF1807CE
:100C300089F088E00E948C140817190759F081EF99
:100C400092E00E947F15882329F0CE0162DB682F95
:100C5000CE01A2DFDF91CF911F910F91089581EF17
:100C600092E00E94321585EE92E00E94321589EDE5
:100C700092E00E9432158DEC92E00E94321544E61B
:100C800050E060E070E081EC92E00C944C15089527
:100C9000FC011082118212820895CF93DF93DC0150
:100CA00011962C91119781E0820F11968C931197D8
:100CB00030E02F5F3F4FF901EE0FFF1F2E0F3F1F58
:100CC000FD01E20FF31FEB01288139814A81208366
:100CD00031834283823318F011961C921197129639
:100CE0008C9112978F5F12968C93DF91CF9108951C
:100CF000DC019C9181E0890F292F30E0823310F4D0
:100D00008C9301C01C9212968C911297815012966E
:100D10008C9312972F5F3F4FF901EE0FFF1F2E0F9D
:100D20003F1FFD01E20FF31F6081718182810895F1
:100D3000FC0182810895FC0112AA0895FC0122A9F8
:100D4000211102C0663039F431E0320FFC0132ABC0
:100D5000E20FF11D6083089521E0FC0182A9823336
:100D600008F420E0822F0895FC0112AA0895262F8E
:100D7000220F620F6B5FFC01E60FF11D7181608134
:100D800082810895EF92FF920F931F93CF93DF9389
:100D90007C01FC01C2A90C2F10E0015011090630A2
:100DA0001105ECF0DC011596E801C80FD91F90E0A1
:100DB000ECE86D9148E050E0792F7627292F30E05C
:100DC00035952795922F70FF02C09E2F922766952A
:100DD0004150510989F7CA17DB0759F701C090E064
:100DE000F701E00FF11F81E02081291380E0DF91FE
:100DF000CF911F910F91FF90EF900895FC0122A9D0
:100E0000263068F03281313061F4448150E04A5F2D
:100E10005F4F30E04217530731F4B4CF089580E0BC
:100E2000089580E0089580E00895CF93DF93EC016A
:100E3000E5DF882339F08C819BEA899F812D11247D
:100E4000869501C080E0DF91CF910895CF93DF9325
:100E5000EC01789488E090E00E945C180E94631492
:100E6000BE01CE0185529F4FFED2BE01CE018259F6
:100E70009E4F5CD6AE0161E070E0CE01019603DAD0
:100E8000DF91CF9108958C017C0182E9E81A8EEF01
:100E9000F80AC701AFD5E801219605521F4FCE01D0
:100EA0001ADAC8016AD3CE01A1DEC70111D5CE017D
:100EB000F6DDF5CF90E08B30910518F5FC01EE588A
:100EC000FF4F0C946F1B84E290E0089587E290E05E
:100ED00008958AE290E008958DE290E0089580E31D
:100EE00090E0089583E390E0089581E091E0089513
:100EF00084E091E0089587E091E008958AE091E030
:100F000008958DEF92E0089581E290E0089590E0D9
:100F10008B30910518F5FC01E358FF4F0C946F1BC3
:100F200085E290E0089588E290E008958BE290E0F9
:100F300008958EE290E0089581E390E0089584E3BF
:100F400090E0089582E091E0089585E091E00895B1
:100F500088E091E008958BE091E008958DEF92E0B4
:100F6000089582E290E008950F931F93CF93DF934B
:100F7000FC01C62FD42F608341832283211116C028
:100F8000862F98DFFC01908121E030E002C0220F23
:100F9000331FDA95E2F7D22FD0959D2390838C2FC3
:100FA000B6DFFC0120812D23208325C02230B1F43F
:100FB000862F80DFFC01908101E010E002C0000F6D
:100FC000111FDA95E2F7802F8095982390838C2F5C
:100FD0009EDFFC012081022B00830DC0862F6ADF7B
:100FE000FC01408121E030E002C0220F331FDA957E
:100FF000E2F7242B2083DF91CF911F910F91089569
:10100000CF93FC01C1818081662369F080DFFC0100
:10101000408121E030E002C0220F331FCA95E2F781
:10102000242B20830DC073DFFC01908121E030E090
:1010300002C0220F331FCA95E2F72095292320838F
:10104000CF910895DC0111962C911197EC918E2F80
:1010500090E08B30910518F5FC01E857FF4F0C9498
:101060006F1BE3E2F0E020C0E6E2F0E01DC0E9E241
:10107000F0E01AC0ECE2F0E017C0EFE2F0E014C0DC
:10108000E2E3F0E011C0E0E0F1E00EC0E3E0F1E007
:101090000BC0E6E0F1E008C0E9E0F1E005C0EDEFEB
:1010A000F2E002C0E0E2F0E0808190E002C09595BD
:1010B00087952A95E2F781700895C4DF91E089272A
:1010C0000895FC016193CF017CC50895EF92FF92D2
:1010D0000F931F93CF93DF9300D0CDB7DEB7E62EEB
:1010E000F42E8C010F5F1F4FFC016081C80169D590
:1010F000E982FA8242E0BE016F5F7F4FC801E5D509
:101100000F900F90DF91CF911F910F91FF90EF9073
:1011100008950F931F93CF93DF9300D0CDB7DEB721
:101120006A838C010F5F1F4FFC016081C80149D5A4
:1011300041E0BE016E5F7F4FC801C7D541E0BE01EF
:101140006F5F7F4FC80161D689810F900F90DF914B
:10115000CF911F910F910895CF93DF93EC01888178
:10116000882311F063E101C062E18B819C81D1DFB2
:1011700090E0098002C0959587950A94E2F7817006
:10118000DF91CF9108951F93CF93DF93EC01888176
:10119000882311F013E101C012E1662391F0612F61
:1011A0008B819C81B6DF41E050E0098002C0440F92
:1011B000551F0A94E2F7482B612F8B819C8186DFB3
:1011C00012C0612F8B819C81A4DF41E050E0098037
:1011D00002C0440F551F0A94E2F740954823612F3F
:1011E0008B819C8173DFDF91CF911F9108951F93B5
:1011F000CF93DF93EC016A8311E08881811101C0F4
:1012000010E0611112C0612F8B819C8182DF41E06F
:1012100050E0098002C0440F551F0A94E2F7482BA2
:10122000612F8B819C8152DF12C0612F8B819C8149
:1012300070DF41E050E0098002C0440F551F0A945E
:10124000E2F740954823612F8B819C813FDFDF913E
:10125000CF911F9108950F93FC01748363834083A2
:101260002183602FC4DF0F910895CF93DF93EC01AA
:1012700060E2029626DF67E2CE01429622DFDF912E
:10128000CF910895EF92FF920F93CF93DF93EC01EC
:101290007C0182E0E80EF11C00E020E040E0B701B4
:1012A000CE018296D8DF22E040E0B701CE018796DA
:1012B000D2DF24E040E0B701CE018C96CCDF26E0FF
:1012C00040E0B701CE01C196C6DF20E041E0B701A2
:1012D000CE01C696C0DF22E041E0B701CE01CB9639
:1012E000BADF24E041E0B701CE01805C9F4FB3DF5D
:1012F00026E041E0B701CE018B5B9F4FACDF7E0162
:1013000082E1E80EF11C20E040E0B701CE01865BEF
:101310009F4FA1DF22E040E0B701CE01815B9F4FEC
:101320009ADF24E040E0B701CE018C5A9F4F93DF53
:1013300026E040E0B701CE01875A9F4F8CDF20E0C6
:1013400041E0B701CE01825A9F4F85DF22E041E0A4
:10135000B701CE018D599F4F7EDF24E041E0B701F8
:10136000CE0188599F4F77DF26E041E0B701CE01DB
:1013700083599F4F70DFDF91CF910F91FF90EF90D6
:101380000895CF93DF93EC0122E042E069E08E58AC
:101390009F4FEADD22E046E061E0CE018B589F4F8F
:1013A000E3DD22E044E061E0CE0188589F4FDCDDC0
:1013B00022E040E061E0CE0185589F4FD5DD22E07C
:1013C00044E064E0CE0182589F4FCEDD22E045E04C
:1013D00061E0CE018F579F4FC7DD22E046E064E019
:1013E000CE018C579F4FC0DD22E047E064E0CE0184
:1013F00089579F4FB9DD22E045E064E0CE01865772
:101400009F4FB2DDDF91CF910895CF93DF93EC0131
:1014100060E082579F4F0E94100161E0CE01835728
:101420009F4F0E94100166E0CE0181579F4F0E949E
:10143000100167E0CE0180579F4F0E941001DF919D
:10144000CF910895CF93DF93EC0162E08F569F4FC9
:101450000E94100165E0CE018E569F4F0E94100140
:10146000DF91CF9108950F931F93CF93DF93EC01FA
:101470008B0144E650E060E070E08EEF92E00E9465
:101480006C1519830883CE01F0DECE01FBDECE01A0
:1014900078DFCE01BADFCE01D5DFDF91CF911F918A
:1014A0000F9108950F931F93CF938C010E581F4FE8
:1014B000C0E3C80102DE682F70E08C2F0E94721416
:1014C0000D5F1F4FCF5FC933A1F7CF911F910F91D0
:1014D00008950F931F93CF938C010E5D1F4FC0E4AF
:1014E000C8013ADE811105C061E070E08C2F0E94D6
:1014F00072140B5F1F4FCF5FC03591F7CF911F91D3
:101500000F910895CF93DF93EC0183579F4F0E9473
:101510002D01BC0180E20E947214CE0182579F4FC0
:101520000E942D01BC0181E20E947214CE018157FC
:101530009F4F0E942D01BC0182E20E947214CE01D5
:1015400080579F4F0E942D01BC0183E20E947214BC
:10155000CE018F569F4F0E942D01BC0184E20E9454
:101560007214CE018E569F4F0E942D01BC0185E260
:101570000E947214DF91CF910895CF93DF93EC0115
:101580008EEF92E00E947F15882331F0CE018ADF32
:10159000CE019FDFCE01B6DFDF91CF9108954AEFF4
:1015A00050E060E070E08AE093E00E944C1544E671
:1015B00050E060E070E08EEF92E00C944C150895DE
:1015C000CF93DF93EC0160E2885F9E4F7ADD67E2A4
:1015D000CE01885E9E4F75DDDF91CF910895EF9229
:1015E000FF920F93CF93DF93EC017C0188EFE81A11
:1015F0008EEFF80A01E021E040E0B701CE01885DFE
:101600009E4F29DE23E040E0B701CE01835D9E4F6F
:1016100022DE25E040E0B701CE018E5C9E4F1BDE4E
:1016200027E040E0B701CE01895C9E4F14DE21E047
:1016300041E0B701CE01845C9E4F0DDE23E041E026
:10164000B701CE018F5B9E4F06DE25E041E0B7017A
:10165000CE018A5B9E4FFFDD27E041E0B701CE015E
:10166000855B9E4FF8DD7E0188EEE81A8EEFF80A62
:1016700021E040E0B701CE01805B9E4FECDD23E02E
:1016800040E0B701CE018B5A9E4FE5DD25E040E0FA
:10169000B701CE01865A9E4FDEDD27E040E0B7015C
:1016A000CE01815A9E4FD7DD21E041E0B701CE0146
:1016B0008C599E4FD0DD23E041E0B701CE01875920
:1016C0009E4FC9DD25E041E0B701CE0182599E4F12
:1016D000C2DD27E041E0B701CE018D589E4FBBDD52
:1016E000DF91CF910F91FF90EF9008950F931F938B
:1016F000CF93DF938C01EC01C858DE4F21E040E02E
:1017000062E0CE0131DC21E041E062E0C8018558B1
:101710009E4F2ADC21E042E062E0C80182589E4FE1
:1017200023DC21E043E062E0C8018F579E4F1CDCC0
:1017300021E044E062E0C8018C579E4F15DC21E0B7
:1017400045E062E0C80189579E4F0EDC21E046E08B
:1017500062E0C80186579E4F07DC21E047E062E067
:10176000C80183579E4F00DC00571E4F60E0CE013A
:1017700047DC2396C017D107C9F7DF91CF911F919E
:101780000F910895CF92DF92EF92FF920F931F93E4
:10179000CF93DF93885D9E4F7C0110E4C0E0D0E0E2
:1017A000CC24C394D12C01E0812F0E948C14892B6E
:1017B00011F188E00E948C1496010C2E02C0220FB9
:1017C000331F0A94E2F782239323892B21F0602FA1
:1017D000C701D9DC18C087E193E00E947F158823F8
:1017E00091F060911603C701CEDC8091160380272B
:1017F0008093160308C060E070E0812F0E9472148D
:1018000060E0C701C0DC21961F5F85E0E80EF11C97
:10181000C031D10549F6DF91CF911F910F91FF9013
:10182000EF90DF90CF900895CF93DF93EC0184E0A9
:101830000E948C14892B59F061E0CE0188589E4F8C
:10184000DFDB60E0CE018C579E4FDADB0AC060E040
:10185000CE0188589E4FD4DB61E0CE018C579E4F5D
:10186000CFDB87E00E948C14892B59F060E0CE0119
:101870008F579E4FC5DB61E0CE0183579E4FC0DB83
:101880000AC061E0CE018F579E4FBADB60E0CE0107
:1018900083579E4FB5DB88E00E948C14892B59F04A
:1018A00060E0CE0182589E4FABDB61E0CE018657EF
:1018B0009E4FA6DB0AC061E0CE0182589E4FA0DB9E
:1018C00060E0CE0186579E4F9BDBDF91CF9108955C
:1018D000CF93DF93EC0156DFCE01A6DFCE01029657
:1018E0000E94ED1481E00E948C144AE050E0BC019B
:1018F0008AE793E0ADD78AE793E08CD580E50E9434
:101900008C144AE050E0BC0189E393E0A1D789E35D
:1019100093E080D5DF91CF910895AF92BF92CF929F
:10192000DF92EF92FF920F931F93CF93DF93CDB788
:10193000DEB7A0970FB6F894DEBF0FBECDBF6C0127
:1019400020E2E6E0F2E0CE010196DC0101900D928A
:101950002A95E1F78E010F5D1F4F7C015801F501BB
:10196000929182915F019C01220F331F220F331F3E
:10197000820F931F885D9E4F61E08C0D9D1D03DCDF
:10198000FFEF20E782E0F15020408040E1F700C007
:101990000000EA14FB0419F7F801929182918F017B
:1019A0009C01220F331F220F331F820F931F885D6C
:1019B0009E4F60E08C0D9D1DE6DBFFEF20E782E08F
:1019C000F15020408040E1F700C000000E151F05D7
:1019D00019F7A0960FB6F894DEBF0FBECDBFDF910A
:1019E000CF911F910F91FF90EF90DF90CF90BF901C
:1019F000AF9008956F927F928F929F92AF92BF9215
:101A0000CF92DF92EF92FF920F931F93CF93DF93CA
:101A10007C01612C712C0F2EF3E0AF2EB12CF02D38
:101A2000812C912C630121E0C222DD24C114D10458
:101A300021F0E501C819D90901C0E4018E01000FA8
:101A4000111F0C0F1D1F08581E4F0E0D1F1D61E0AA
:101A5000C801D6DA2496CE01880F991FC80FD91F66
:101A6000C858DE4FCE0DDF1D61E0CE01C9DA8FEF21
:101A700090E722E0815090402040E1F700C0000054
:101A800060E0C801BDDA60E0CE01BADA8FEF881AF3
:101A9000980A94E08916910449F62FEF621A720AA7
:101AA00084E06816710409F0BBCFC70136DFDF910F
:101AB000CF911F910F91FF90EF90DF90CF90BF904B
:101AC000AF909F908F907F906F9008958F92AF927C
:101AD000CF92EF920F9360E78AE793E0B3D461E788
:101AE00089E393E0AFD40F2EF7E08F2EF02D0F2E69
:101AF000F6E0AF2EF02D0F2EF5E0CF2EF02D6894EE
:101B0000EE24E2F800E021E042E06FE383E293E0BC
:101B10006ED344EF51E060E070E087E193E0BCD722
:101B20000F91EF90CF90AF908F9008950F931F93E8
:101B3000CF93DF93EC018B017983688341DDCE0184
:101B40004EDDCE01D3DD43E050E0B801CE01029678
:101B500005D720E044E064E183E293E015D440E05F
:101B600063E083E293E019D361E083E293E029D359
:101B700066E472E083E293E0DAD241E060E083E27F
:101B800093E0FED164E572E083E293E0D0D260E7B7
:101B90008AE793E029D461E789E393E025D4DF91D4
:101BA000CF911F910F910895442351F0A82FB92F81
:101BB000FB01640F711D8D918193E617F707D9F72B
:101BC0000895660FFC0161830895FC01611104C052
:101BD00081818160818303C081818E7F8183818146
:101BE0008093BB0084E88093BC0083E080830895E9
:101BF000FC01848590E0258530E021503109821771
:101C0000930731F4ACEBB0E09C9180E489278C938E
:101C100084E88093BC0086E080830895FC0184E919
:101C20008093BC001486108286858F5F868785E34B
:101C30008A95F1F700000895FC019091BC0099236A
:101C400054F48091B900887F883019F482E0808351
:101C50000895CF01E3CF0895FC019091BC00992332
:101C600054F48091B900887F883119F484E080832E
:101C70000895CF01D3CF0895FC019091BC00992322
:101C800054F48091B900887F803419F485E0808312
:101C90000895CF01C3CF08952091BC002223A4F45E
:101CA0002091B900287F283271F4FC0124852F5F30
:101CB00024873585231718F424E02083089527E02E
:101CC000FC0120830895AACF08959F92AF92BF92FE
:101CD000CF92DF92EF92FF920F931F93CF93DF93F8
:101CE000EC017B01142FBC016E5F7F4FC7015CDFED
:101CF00088E48093B8001D871C861E861882E0E069
:101D00000F2EFBEBCF2ED12CF02D0CEB10E00F2E75
:101D1000F4E89F2EF02D0F2EF6E0AF2EF02D0F2EB3
:101D2000F4EEBF2EF02D03C0E881E83099F18E85E6
:101D3000853098F58E2F90E08830910540F5FC01B4
:101D4000ED56FF4F0C946F1BF801B08281E0888341
:101D50002AC0CE0171DFE8CF61E0CE0136DFE4CFEB
:101D6000CE017ADFE1CF8C85F701E80FF11D80818C
:101D7000F6018083F8019082A88215C0CE018CDF25
:101D8000D3CF84E98093BC0088E0888309C088E0D1
:101D9000888306C081E090E008C080E090E005C044
:101DA00081E090E002C0E881C2CFDF91CF911F9126
:101DB0000F91FF90EF90DF90CF90BF90AF909F90EA
:101DC00008952091BC002223FCF42091BC0026FF42
:101DD00003C040E565E002C048E567E02091B90036
:101DE000287F30E050E02417350769F4FC01248592
:101DF00031E0320F34873091BB00E20FF11D3283A6
:101E0000FC01608308950ACF0895BF92CF92DF92BC
:101E1000EF92FF920F931F93CF93DF93EC017B011F
:101E2000C42E88E48093B8004D871C861E861882D5
:101E3000E0E00CEB10E00F2EF4EEBF2EF02DDD24D1
:101E4000D39403C0E881E83051F18E85853078F570
:101E50008E2F90E08830910500F5FC01E556FF4F8C
:101E60000C946F1BF801B082D882ED2DEECFCE011D
:101E7000E3DEE8CF60E0CE01A8DEE4CFCE01FCDEF9
:101E8000E1CFCE01B5DEDECFCE019BDFDBCF84E933
:101E90008093BC0088E0888302C088E088834C2D52
:101EA000B701CE01029680DE81E090E002C080E0C2
:101EB00090E0DF91CF911F910F91FF90EF90DF9015
:101EC000CF90BF900895FC0112828FEF8183108222
:101ED00013820895CF93DF93EC016A838BEB93E039
:101EE00070DE41E0BE018BEB93E08FDF888381E001
:101EF00090E0DF91CF910895611104C02FEFFC01B4
:101F000021830895FC0111820895FC012181622B37
:101F1000608341E0BC018BEB93E0D7DE81E090E091
:101F20000895089508950895DC01ED91FC910084D1
:101F3000F185E02D41E0099581E090E0089528E7E2
:101F400032E0FC01318320830895DC01ED91FC91A6
:101F50000480F581E02D6FEF09950895DC01ED9186
:101F6000FC910084F185E02D40E00995089561E041
:101F7000F5DF8FE39FE10197F1F700C000000895BE
:101F8000CF93DF93CDB7DEB728970FB6F894DEBFB7
:101F90000FBECDBFFC01198280E48A8394E19B834C
:101FA00094E59C831D828E8380E18F8380E5888702
:101FB0008581481710F04FEF480F9681903161F4FA
:101FC000843051F4DE01A40FB11D15968C91680F79
:101FD0006068CF01C3DF09C0DE01A40FB11D1196F7
:101FE0009C91690F6068CF01B9DF28960FB6F8940D
:101FF000DEBF0FBECDBFDF91CF910895FC0163819D
:10200000262F246023836C60A9CF0895CF93DF939C
:10201000EC01423018F08A8188608A834D836E8398
:10202000222329F0413019F48A8184608A832FEFBA
:1020300081EE94E0215080409040E1F700C0000024
:102040006A8164FD3DC0E881F9810084F185E02D5D
:1020500042E063E0CE0109958FE496E40197F1F741
:1020600000C00000E881F9810084F185E02D42E0A4
:1020700063E0CE01099587E592E00197F1F700C092
:102080000000E881F9810084F185E02D42E063E001
:10209000CE01099587E592E00197F1F700C00000B5
:1020A000E881F9810084F185E02D42E062E0CE0113
:1020B000099587E592E00197F1F700C000001DC087
:1020C0006062CE014BDF8FE496E40197F1F700C028
:1020D00000006A816062CE0141DF87E592E00197EE
:1020E000F1F700C000006A816062CE0137DF87E54A
:1020F00092E00197F1F700C000006A816062CE01B2
:102100002DDF8FEE90E00197F1F700C0000084E032
:102110008B83CE0173DFCE012ADF82E08C8366E001
:10212000CE011CDFCE0111DFDF91CF910895CF9258
:10213000DF92EF92FF920F931F93CF93DF938C0167
:10214000DB019C91992301F1EB010F2EF6E6EF2EB6
:10215000F2E0FF2EF02D6E01DF93CF93FF92EF920E
:102160000E94E11B2196D801ED91FC910680F78138
:10217000E02DD6016C91C80109950F900F900F903A
:102180000F9088818111E7CFDF91CF911F910F913F
:10219000FF90EF90DF90CF90089521E001C0220FD3
:1021A0006A95EAF7DC0119962C93199717964C93C8
:1021B0001797ED91FC910480F581E02D60E0099581
:1021C0000895FC018185882389F09781911103C0CE
:1021D000611105C006C0913021F4611102C08287EF
:1021E00001C012866285CF010B968FCE08956F9243
:1021F0007F928F92AF92CF92DF92EF92FF920F93E6
:102200001F93CF93DF93CDB7DEB73C01D62EF42ECC
:10221000122F95DE86E892E0F30191838083C3015B
:102220000B9651DEF301D08611861286178281E06B
:10223000982F01C0990FFA94EAF79787982F01C059
:10224000990F1A95EAF7908B982F01C0990F0A956C
:10225000EAF7918B982F01C0990FEA94EAF7928BD5
:10226000982F01C0990FCA94EAF7938B982F01C059
:10227000990FAA94EAF7948B01C0880F8A94EAF721
:10228000858BDF91CF911F910F91FF90EF90DF90A1
:10229000CF90AF908F907F906F9008950F931F9382
:1022A000CF93DF93EC018C01055F1F4F6885C80158
:1022B00011DE019751F461E0C8011EDE1A8260E070
:1022C000C80123DE81E090E002C080E090E0DF9171
:1022D000CF911F910F910895EF92FF920F931F934B
:1022E000CF938C01C62F7C018BE0E80EF11CF80126
:1022F00067856C2BC70109DEF801678560956C2343
:10230000C70103DECF911F910F91FF90EF900895C9
:10231000DC01FC01049620E060FF02C03289232B1F
:1023200066953196E817F907B9F7413019F45196D7
:102330004C9151971A969C911A97622F692B642B96
:10234000CD01CACF08950F931F93CF93DF938C01D4
:10235000C62FD42F423021F46F7040E0D9DF0FC078
:1023600070E0759567957595679575956795759501
:102370006795CEDF6C2F6F704D2FC801C9DFDF91DD
:10238000CF911F910F910895FF920F931F93CF93B9
:10239000DF93EC01162F042FF22E80DF2F2D402F1C
:1023A000612FCE0133DEDF91CF911F910F91FF900E
:1023B0000895603108F06FE0606EFC0160A3BC011D
:1023C000605E7F4F41E0419680CC0895643008F014
:1023D00060E0660F6168FC0160A3BC01605E7F4F36
:1023E00041E0419672CC0895CF93DF93EC01688B66
:1023F00081E288A3BE01605E7F4F41E0CE0141963D
:1024000064DC60E0CE01E2DF62E0CE01D2DFDF918A
:10241000CF910895DC0190961C929097FC01AC013D
:10242000405F5F4F208191813296278F90A3E41700
:10243000F507C1F7BD01605E7F4F41E1CD014196D7
:1024400044CC0895FC01E05CFF4F10824196B9CB6B
:102450000895653098F470E0660F771FFC01E60F71
:10246000F71FA42FB0E0A057BD4F80E8289F900130
:1024700011248C91282B30E0318320830895CF9351
:10248000DF93EC016A3031F4FC01E05CFF4F108215
:1024900080E016C06D3039F4FC01E05CFF4F108223
:1024A00021E080E015C040ED460F4A3040F420E0C6
:1024B000FC01E05CFF4F6081CCDF81E001C080E087
:1024C000FE01E05CFF4F908121E0290F223021F0D6
:1024D000C05CDF4F288304C0C05CDF4F9E5F9883E1
:1024E00090E0DF91CF910895FC0180E490E091832A
:1024F0008083938382831582148297838683918756
:10250000808708952F923F924F925F926F927F92B1
:102510008F929F92AF92BF92CF92DF92EF92FF92F3
:102520000F931F93CF93DF93CDB7DEB72B970FB6E3
:10253000F894DEBF0FBECDBF1C014D835E836F8359
:1025400078872B87098720E030E0A9016D817E81A3
:102550008F819885C5D688230CF02FC18D819E81EF
:10256000AF81B885B0588D839E83AF83B88791E0E3
:102570009A87A3E0A98324C1C301B20150D79B016C
:10258000AC01C701B601FBD76B017C010F5F1F4F88
:102590000A151B0589F72D813E814F815885C7019A
:1025A000B601EDD720E030E040E05FE335D609D753
:1025B0002B013C019981E92FF0E01E161F06A4F0C3
:1025C000812C912C54018394481459046A047B048F
:1025D00008F44AC09985892F90E0A0E0B0E0898393
:1025E0009A83AB83BC831FC000E010E0812C912C48
:1025F000540183949985892F90E0A0E0B0E089830D
:102600009A83AB83BC83A501940169817A818B8114
:102610009C810E94221B4B015C010F5F1F4F0E1714
:102620001F078CF3D1CF8B8581508B8769817A818D
:102630008B819C81F4D69B01AC01C701B60154D6B5
:102640006B017C012D813E814F81588598D720E018
:1026500030E040E05FE3E0D5B4D62B013C016815E3
:1026600079058A059B05F8F620E030E040E85FE355
:10267000C701B60135D688231CF4C10135DFB6C0C9
:10268000411451046104710429F446C0AB85A117BB
:1026900060F44DC010E084E099249394A12C9985B6
:1026A000C92ED12CE12CF12C8983BB85BB2329F0C9
:1026B000092DB11719F00A2D01C00A2DB9808B2DF3
:1026C00081508983882EC301B201A7019601C9D721
:1026D000462F202F6B2DC101BCDE9981923071F401
:1026E000BA94BA94B982A4E0A81540F0E82DF0E0BD
:1026F000EE0FFF1FE20DF31D11821082C301B20124
:10270000A7019601AED729013A011F5F232B242B85
:10271000252B09F4BBCFC9CF20E040E064E0C10124
:1027200098DEBA85B1110EC083E089831BC0B981E0
:102730009A85992399F0EB2FAB2FA150A983B5303F
:1027400068F403C0B2E0B983E3E0F0E0EE0FFF1FEE
:10275000E20DF31D80E490E09183808389818823DA
:102760000CF444C006C0A981A150A983AA230CF48B
:102770003DC0B981B530B8F7EB2FF0E0EE0FFF1F89
:10278000E20DF31D11821082EECF20E030E040E038
:102790005FE36D817E818F8198853ED512D62B01B6
:1027A0003C018981E82FF0E00F2EC12CD12CF0E8FC
:1027B000EF2EFFE3FF2EF02D17CF1A8694E09983BA
:1027C000AB85AA2EB12C1A141B04FCF600E010E015
:1027D0000F2EC12CD12CF0E8EF2EFFE3FF2EF02DB1
:1027E000B9854B2E512C612C712CC6CE2B960FB671
:1027F000F894DEBF0FBECDBFDF91CF911F910F9137
:10280000FF90EF90DF90CF90BF90AF909F908F9010
:102810007F906F905F904F903F902F9008950F930F
:10282000CF93DF93EC01022FCB01BA01F8D5AB01B6
:10283000BC0120E0CE0166DEDF91CF910F910895BB
:102840002115310519F4642F1ACE0895E8CF0895A3
:102850009A01AB0160E070E0F3CF0895CF93DF936E
:10286000CDB7DEB7CE5FD2400FB6F894DEBF0FBE55
:10287000CDBF2FEF83ED90E3215080409040E1F7F2
:1028800000C00000CE0104960E944806CE01835687
:102890009F4F0E949B06CE0180539F4FE3D0CE01F5
:1028A00001960E942607CE0101960E94430780E010
:1028B00090E0C250DD4F0FB6F894DEBF0FBECDBF23
:1028C000DF91CF910895EAECF3E08AEC96E0118273
:1028D000108213821282158214823696E817F90745
:1028E000B1F7089590E0FC01EE0FFF1FE80FF91F0C
:1028F000EE0FFF1FE653FC4F01C0FC018481958160
:102900000097D9F7309739F0718360830280F381A3
:10291000E02D3097C9F7089590E0FC01EE0FFF1FFE
:10292000E80FF91FEE0FFF1FE653FC4F80819181E6
:1029300008958095881F8827881F0895FC01369682
:102940009C012A5F3E4F11921192E217F307D9F7CB
:1029500020E03FE0FC01318720870895CF93DF938B
:10296000EA01FC01118210827383628355834483E0
:10297000E5DFC130D10549F020F0C230D10549F082
:102980000CC087E690E081D20BC087E690E0EFD2E2
:1029900007C087E690E090D303C087E690E027D495
:1029A000DF93CF9380EA92E09F938F930AD70F90A3
:1029B0000F900F900F90DF91CF9108959B012D5FA5
:1029C0003F4F220F331F820F931FFC0180819181A3
:1029D000892B11F0CB01A0CF08950F931F93CF93B4
:1029E000DF938C018CEC96E08AD08823E9F080910B
:1029F000CA069091CB068A3091052CF01092CB0636
:102A00001092CA0611C001969093CB068093CA0615
:102A1000C0E0D0E0BE01C801D1DF2196C038D105A9
:102A2000C9F78CEC96E00DD0DF91CF911F910F91FB
:102A3000089544EF51E060E070E08CEC96E02CC02B
:102A40000895CF93DF93EC0188ED96E061D16C831C
:102A50007D838E839F83688379838A839B83DF91C1
:102A6000CF910895CF93DF93EC0141E050E060E017
:102A700070E088ED96E062D188ED96E052D182E375
:102A800090E0A0E0B0E088879987AA87BB87CE0155
:102A9000D8DFDF91CF910895CF92DF92EF92FF922E
:102AA000CF93DF93EC016A017B0141E050E060E0ED
:102AB00070E088ED96E042D188ED96E032D1C8868C
:102AC000D986EA86FB86CE01BCDFDF91CF91FF90ED
:102AD000EF90DF90CF900895FC0140875187628787
:102AE00073870895CF93DF93EC0188ED96E010D1C2
:102AF000688379838A839B83DF91CF910895CF93F5
:102B0000DF93EC01EFDF288139818C819D81281BC7
:102B1000390BC901992324F488279927821B930B29
:102B2000092E000CAA0BBB0B488559856A857B854D
:102B3000481759076A077B0724F4CE0182DF81E03A
:102B400001C080E0DF91CF9108950F931F93CF9341
:102B5000DF93EC01C7DF888199812C813D81821B45
:102B6000930BAC0122F444275527481B590B052E23
:102B7000000C660B770B81E0088519852A853B855B
:102B800004171507260737070CF080E0DF91CF9177
:102B90001F910F91089588ED96E0CEC00895109290
:102BA000DD061092DE061092DF061092E00607D1D5
:102BB00080E0D7C008951F920F920FB60F92112494
:102BC0000BB60F922F933F934F935F936F937F9327
:102BD0008F939F93AF93BF93EF93FF938091DD0605
:102BE0009091DE06A091DF06B091E0060196A11D4E
:102BF000B11D8093DD069093DE06A093DF06B093AF
:102C0000E0064091DD065091DE066091DF0670918E
:102C1000E0068091D9069091DA06A091DB06B0918A
:102C2000DC0684179507A607B70708F4B8DFFF91FD
:102C3000EF91BF91AF919F918F917F916F915F9134
:102C40004F913F912F910F900BBE0F900FBE0F90A1
:102C50001F9018951F920F920FB60F9211244F9349
:102C60005F936F937F938F939F93AF93BF93809165
:102C7000E9069091EA06A091EB06B091EC06019668
:102C8000A11DB11D8093E9069093EA06A093EB067F
:102C9000B093EC064091E9065091EA066091EB068C
:102CA0007091EC068091E1069091E206A091E30616
:102CB000B091E40684179507A607B707D8F480916A
:102CC000E5069091E606A091E706B091E806049625
:102CD000A11DB11D8093E5069093E606A093E7063B
:102CE000B093E8061092E9061092EA061092EB06FD
:102CF0001092EC0616BABF91AF919F918F917F9180
:102D00006F915F914F910F900FBE0F901F9018958C
:102D10006091E5067091E6068091E7069091E806DD
:102D20000895EFE6F0E0808181608083E1E8F0E0E3
:102D30008081816080830895F4CF0895A0E8BEE388
:102D40009A01AB01EAD42FEF3FEF40E050E089D485
:102D50002093E1063093E2064093E3065093E406A5
:102D60000895E82F8093ED0685B5887F85BD8E2F69
:102D700090E08830910510F5FC01ED55FF4FAFC490
:102D800085B585BD089585B5816085BD089585B5F6
:102D9000826085BD089585B5836085BD089585B53C
:102DA000846085BD089585B5856085BD089585B528
:102DB000866085BD089585B5876085BD0895EEE67A
:102DC000F0E080818E7F808308951F920F920FB66E
:102DD0000F9211240BB60F922F938F939F93EF9323
:102DE000FF938091C0002091C6008C71E091F006A5
:102DF000EF5FEF719091EF06E91739F0E093F0067D
:102E0000F0E0EF50F94F208301C082E09091EE0690
:102E1000892B8093EE06FF91EF919F918F912F91D7
:102E20000F900BBE0F900FBE0F901F9018951F9222
:102E30000F920FB60F9211240BB60F928F939F93A0
:102E4000EF93FF939091120780911107981769F003
:102E5000E0911107EF5FEF71E0931107F0E0ED5E95
:102E6000F84F80818093C60005C0E1ECF0E08081DE
:102E70008F7D8083FF91EF919F918F910F900BBE7B
:102E80000F900FBE0F901F9018951092120710927E
:102E900011071092F0061092EF0690789093C500FB
:102EA0008093C40088E98093C10086E08093C200CB
:102EB00008951F920F920FB60F9211240BB60F9226
:102EC0002F938F939F93EF93FF938091C80020914E
:102ED000CE008C71E0913507EF5F90913407E917D0
:102EE00039F0E0933507F0E0EA5CF84F208301C049
:102EF00082E090913307892B80933307FF91EF9104
:102F00009F918F912F910F900BBE0F900FBE0F903E
:102F10001F9018951F920F920FB60F9211240BB6A7
:102F20000F928F939F93EF93FF9390913708809127
:102F30003608981761F0E0913608EF5FE0933608A5
:102F4000F0E0E85CF74F80818093CE0005C0E9ECAB
:102F5000F0E080818F7D8083FF91EF919F918F9131
:102F60000F900BBE0F900FBE0F901F9018951092F0
:102F7000370810923608109235071092340790786F
:102F80009093CD008093CC0088E98093C90086E0BF
:102F90008093CA000895909135078091340798175F
:102FA000A1F0809134078F5FE82FF0E0EA5CF84FE2
:102FB000208180933407809133071092330790E08B
:102FC000982F8827820F911D089580E091E0089541
:102FD000209137082F5F909136082917E1F3E22FEF
:102FE000F0E0E85CF74F808320933708E9ECF0E0ED
:102FF00080818062808308951F920F920FB60F9296
:1030000011240BB60F922F938F939F93EF93FF93FF
:103010008091D0002091D6008C71E0913A09EF5F49
:10302000EF7190913909E91739F0E0933A09F0E02E
:10303000E55CF64F208301C082E090913809892B2E
:1030400080933809FF91EF919F918F912F910F906D
:103050000BBE0F900FBE0F901F9018951F920F92EE
:103060000FB60F9211240BB60F928F939F93EF938D
:10307000FF9390915C0980915B09981769F0E0914A
:103080005B09EF5FEF71E0935B09F0E0E35AF64F05
:1030900080818093D60005C0E1EDF0E080818F7DD6
:1030A0008083FF91EF919F918F910F900BBE0F90B6
:1030B0000FBE0F901F90189510925C0910925B093B
:1030C00010923A091092390990789093D500809324
:1030D000D40088E98093D10086E08093D20060E03C
:1030E00070E08EE898E123D39093C5098093C409DA
:1030F000089520915C092F5F2F7190915B0929172A
:10310000E1F3E22FF0E0E35AF64F808320935C096D
:10311000E1EDF0E080818062808308958A3011F0D3
:10312000E8DF02C08DE0E5DF80E090E008951F92C7
:103130000F920FB60F9211240BB60F922F938F930D
:103140009F93EF93FF9380913001209136018C7112
:10315000E0917F09EF5FEF7190917E09E91739F0F7
:10316000E0937F09F0E0E058F64F208301C082E051
:1031700090917D09892B80937D09FF91EF919F911B
:103180008F912F910F900BBE0F900FBE0F901F903D
:1031900018951F920F920FB60F9211240BB60F9233
:1031A0008F939F93EF93FF939091A1098091A00932
:1031B000981769F0E091A009EF5FEF71E093A00923
:1031C000F0E0EE55F64F80818093360105C0E1E3D3
:1031D000F1E080818F7D8083FF91EF919F918F91AE
:1031E0000F900BBE0F900FBE0F901F90189510926E
:1031F000A1091092A00910927F0910927E0990787F
:10320000909335018093340188E98093310186E001
:103210008093320108955058BB27AA270ED075C15C
:1032200066D130F06BD120F031F49F3F11F41EF4E1
:103230005BC10EF4E095E7FB51C1E92F77D180F334
:10324000BA17620773078407950718F071F49EF5A3
:103250008FC10EF4E0950B2EBA2FA02D0B01B901F2
:1032600090010C01CA01A0011124FF27591B99F0FC
:10327000593F50F4503E68F11A16F040A22F232F08
:10328000342F4427585FF3CF469537952795A79558
:10329000F0405395C9F77EF41F16BA0B620B730BFF
:1032A000840BBAF09150A1F0FF0FBB1F661F771F70
:1032B000881FC2F70EC0BA0F621F731F841F48F425
:1032C000879577956795B795F7959E3F08F0B3CFAB
:1032D0009395880F08F09927EE0F97958795089595
:1032E000D9D008F481E008950CD00FC107D140F087
:1032F000FED030F021F45F3F19F0F0C0511139C118
:10330000F3C014D198F39923C9F35523B1F3951B56
:10331000550BBB27AA2762177307840738F09F5FF6
:103320005F4F220F331F441FAA1FA9F333D00E2E65
:103330003AF0E0E830D091505040E695001CCAF7D2
:1033400029D0FE2F27D0660F771F881FBB1F261797
:1033500037074807AB07B0E809F0BB0B802DBF016A
:10336000FF2793585F4F2AF09E3F510568F0B6C083
:1033700000C15F3FECF3983EDCF386957795679547
:10338000B795F7959F5FC9F7880F911D969587951B
:1033900097F90895E1E0660F771F881FBB1F62173A
:1033A00073078407BA0720F0621B730B840BBA0BF8
:1033B000EE1F88F7E095089504D06894B111D9C044
:1033C0000895BCD088F09F5790F0B92F9927B75136
:1033D000A0F0D1F0660F771F881F991F1AF0BA95D9
:1033E000C9F712C0B13081F0C3D0B1E00895C0C0B8
:1033F000672F782F8827B85F39F0B93FCCF38695CF
:1034000077956795B395D9F73EF49095809570952B
:1034100061957F4F8F4F9F4F0895E89409C097FBA8
:103420003EF490958095709561957F4F8F4F9F4F9B
:103430009923A9F0F92F96E9BB279395F6958795DF
:1034400077956795B795F111F8CFFAF4BB0F11F4A2
:1034500060FF1BC06F5F7F4F8F4F9F4F16C0882349
:1034600011F096E911C0772321F09EE8872F762F7F
:1034700005C0662371F096E8862F70E060E02AF0C0
:103480009A95660F771F881FDAF7880F96958795AC
:1034900097F90895990F0008550FAA0BE0E8FEEF81
:1034A00016161706E807F907C0F012161306E40708
:1034B000F50798F0621B730B840B950B39F40A2601
:1034C00061F0232B242B252B21F408950A2609F4DF
:1034D000A140A6958FEF811D811D089597F99F67E3
:1034E00080E870E060E008959FEF80EC089500248C
:1034F0000A941616170618060906089500240A9459
:1035000012161306140605060895092E0394000CDE
:1035100011F4882352F0BB0F40F4BF2B11F460FF6D
:1035200004C06F5F7F4F8F4F9F4F089557FD905896
:10353000440F551F59F05F3F71F04795880F97FB77
:10354000991F61F09F3F79F0879508951216130631
:103550001406551FF2CF4695F1DF08C01616170660
:103560001806991FF1CF8695710561050894089595
:10357000E894BB2766277727CB0197F908950BD0EE
:10358000C4CFB5DF28F0BADF18F0952309F0A6CF35
:10359000ABCF1124EECFCADFA0F3959FD1F3950FE7
:1035A00050E0551F629FF001729FBB27F00DB11DC7
:1035B000639FAA27F00DB11DAA1F649F6627B00D57
:1035C000A11D661F829F2227B00DA11D621F739F40
:1035D000B00DA11D621F839FA00D611D221F749F4E
:1035E0003327A00D611D231F849F600D211D822F95
:1035F000762F6A2F11249F5750408AF0E1F08823DC
:103600004AF0EE0FFF1FBB1F661F771F881F9150E8
:103610005040A9F79E3F510570F060CFAACF5F3FA1
:10362000ECF3983EDCF3869577956795B795F7951B
:10363000E7959F5FC1F7FE2B880F911D96958795A3
:1036400097F90895DB018F939F9367D0BF91AF9156
:10365000A29F800D911DA39F900DB29F900D1124EC
:103660000895A1E21A2EAA1BBB1BFD010DC0AA1FC3
:10367000BB1FEE1FFF1FA217B307E407F50720F0DB
:10368000A21BB30BE40BF50B661F771F881F991F56
:103690001A9469F760957095809590959B01AC019F
:1036A000BD01CF010895052E97FB16F400940FD0AD
:1036B00057FD05D0D6DF07FC02D046F408C0509570
:1036C0004095309521953F4F4F4F5F4F089590950E
:1036D0008095709561957F4F8F4F9F4F0895EE0FA6
:1036E000FF1F0024001C0BBE0790F691E02D0994EB
:1036F000A29FB001B39FC001A39F700D811D112433
:10370000911DB29F700D811D1124911D0895F0DF50
:10371000B7FF0895821B930B0895EADFA59F900DD4
:10372000B49F900DA49F800D911D112408950F93B7
:103730001F93CF93DF93009731F46115710519F44E
:1037400080E090E039C08B01EC016EE070E081E038
:1037500090E047D2FC01892B99F380E8838301151F
:10376000110571F01387028781E883838091C20974
:103770009091C309892B21F4F093C309E093C20906
:103780002097C9F0D187C08783818260838380912D
:10379000C4099091C509892B71F4F093C509E09390
:1037A000C4098091C6099091C709892B21F4F0932F
:1037B000C709E093C609CF01DF91CF911F910F9107
:1037C0000895CF93DF93CDB7DEB7AE014B5F5F4F68
:1037D000FA0161917191AF018091C4099091C5097D
:1037E00003D0DF91CF9108952F923F924F925F9235
:1037F0006F927F928F929F92AF92BF92CF92DF9201
:10380000EF92FF920F931F93CF93DF93CDB7DEB765
:103810002B970FB6F894DEBF0FBECDBF6C017B01B6
:103820008A01FC0117821682838181FFBFC1CE010C
:1038300001963C01F6019381F70193FD859193FF79
:1038400081917F01882309F4ADC1853239F493FD5C
:10385000859193FF81917F01853221F4B60190E03B
:1038600018D3E8CF912C212C312CFFE1F315D8F09F
:103870008B3279F038F4803279F08332A1F4232D41
:1038800020611DC08D3261F0803369F4232D2160E9
:1038900016C0832D8260382EE32DE4603E2E2AC0B0
:1038A000F32DF8601DC037FC2DC020ED280F2A3005
:1038B00040F08E32B9F436FC75C1232D2064322ECF
:1038C00019C036FE06C08AE0989E200D1124922E63
:1038D00011C0EAE02E9E200D1124222EF32DF0625D
:1038E0003F2E08C08C3621F4832D8068382E02C00C
:1038F000883641F4F70193FD859193FF81917F0113
:103900008111B3CF982F9F7D9554933028F40C5F8D
:103910001F4F9FE399830DC0833631F0833771F0D9
:10392000833509F055C020C0F801808189830E5F7E
:103930001F4F88248394912C530112C02801F2E078
:103940004F0E511CF801A080B18036FE03C0692DD6
:1039500070E002C06FEF7FEFC50190D24C01820191
:10396000F32DFF773F2E15C0280122E0420E511C97
:10397000F801A080B18036FE03C0692D70E002C05E
:103980006FEF7FEFC50168D24C01F32DF0683F2E39
:10399000820133FC19C0822D90E088169906A0F4AC
:1039A000B60180E290E075D22A94F5CFF50137FC9C
:1039B000859137FE81915F01B60190E06AD22110B6
:1039C0002A9421E0821A91088114910479F7E1C0C8
:1039D000843611F0893639F5F80137FE07C0608169
:1039E0007181828193810C5F1F4F08C0608171815A
:1039F000072E000C880B990B0E5F1F4FF32DFF76DF
:103A00003F2E97FF09C090958095709561957F4FE7
:103A10008F4F9F4FF0683F2E2AE030E0A30175D210
:103A2000882E861844C0853731F4232D2F7EB22E80
:103A30002AE030E025C0932D997FB92E8F36C1F052
:103A400018F4883579F0AEC0803719F0883721F046
:103A5000A9C0E92FE061BE2EB4FE0DC0FB2DF460BD
:103A6000BF2E09C034FE0AC0292F2660B22E06C020
:103A700028E030E005C020E130E002C020E132E083
:103A8000F801B7FE07C060817181828193810C5F6C
:103A90001F4F06C06081718180E090E00E5F1F4F74
:103AA000A30133D2882E8618FB2DFF773F2E36FEDA
:103AB0000DC0232D2E7FA22E891458F434FE0BC086
:103AC00032FC09C0832D8E7EA82E05C0B82CA32CF5
:103AD00003C0B82C01C0B92CA4FE0FC0FE01E80D34
:103AE000F11D8081803321F49A2D997EA92E09C081
:103AF000A2FE06C0B394B39404C08A2D867809F060
:103B0000B394A3FC10C0A0FE06C0B21480F4280C2D
:103B1000922C9B180DC0B21458F4B60180E290E0CC
:103B2000B8D1B394F8CFB21418F42B1802C0982C63
:103B3000212CA4FE0FC0B60180E390E0AAD1A2FE22
:103B400016C0A1FC03C088E790E002C088E590E0C1
:103B5000B6010CC08A2D867851F0A1FE02C08BE21E
:103B600001C080E2A7FC8DE2B60190E092D18914F9
:103B700030F4B60180E390E08CD19A94F8CF8A9427
:103B8000F301E80DF11D8081B60190E082D1811032
:103B9000F6CF222009F44ECEB60180E290E079D132
:103BA0002A94F7CFF6018681978102C08FEF9FEFAD
:103BB0002B960FB6F894DEBF0FBECDBFDF91CF912D
:103BC0001F910F91FF90EF90DF90CF90BF90AF903B
:103BD0009F908F907F906F905F904F903F902F902D
:103BE00008950F931F93CF93DF93869F8001879F44
:103BF000100D969F100D1124C8010DD0EC010097F7
:103C000021F0A80160E070E032D1CE01DF91CF91C8
:103C10001F910F9108950F931F93CF93DF938230DD
:103C2000910510F482E090E0E091CA09F091CB098F
:103C300020E030E0A0E0B0E0309719F14081518100
:103C40000281138148175907C8F08417950769F452
:103C5000109731F012960C93129713961C9327C06D
:103C60000093CA091093CB0922C02115310519F020
:103C70004217530718F49A01BD01EF01DF01F80163
:103C8000DBCF21153105F9F0281B390B2430310524
:103C900080F48A819B816115710521F0FB0193837A
:103CA000828304C09093CB098093CA09FE013296A7
:103CB00044C0FE01E20FF31F81939193225031091A
:103CC000398328833AC02091C8093091C909232B30
:103CD00041F420910202309103023093C9092093EC
:103CE000C80920910002309101022115310541F4EB
:103CF0002DB73EB74091040250910502241B350BAD
:103D0000E091C809F091C909E217F307A0F42E1B4E
:103D10003F0B2817390778F0AC014E5F5F4F24172F
:103D2000350748F04E0F5F1F5093C9094093C809EB
:103D30008193919302C0E0E0F0E0CF01DF91CF9159
:103D40001F910F910895CF93DF93009709F481C0DD
:103D5000FC01329713821282A091CA09B091CB095B
:103D6000109781F420813181820F931F2091C8091F
:103D70003091C9092817390751F5F093C909E09323
:103D8000C80967C0ED0120E030E0CE17DF0740F43E
:103D90004A815B819E0141155105F1F0EA01F5CFA1
:103DA000D383C28340815181840F951FC817D907DF
:103DB00059F488819981840F951F0296918380839D
:103DC0008A819B81938382832115310529F4F093A5
:103DD000CB09E093CA093DC0E901FB83EA8349911D
:103DE0005991C40FD51FEC17FD0761F480819181B3
:103DF000840F951F0296E9019983888382819381BC
:103E00009B838A83E0E0F0E012968D919C9113975A
:103E1000009719F0FD01DC01F7CF8D919C9111976E
:103E20009D012E5F3F4F820F931F2091C809309153
:103E3000C9092817390769F4309729F41092CB097A
:103E40001092CA0902C013821282B093C909A093CA
:103E5000C809DF91CF910895FC0105906150704031
:103E60000110D8F7809590958E0F9F1F0895DC0163
:103E700001C06D9341505040E0F70895FC0161503E
:103E8000704001900110D8F7809590958E0F9F1F7C
:103E900008950F931F93CF93DF93FB01238121FD9F
:103EA00003C08FEF9FEF2CC022FF16C046815781C1
:103EB000248135814217530744F4A081B1819D01CB
:103EC0002F5F3F4F318320838C93268137812F5F73
:103ED0003F4F3783268314C08B01EC01FB01008424
:103EE000F185E02D0995892BE1F6D80116968D9183
:103EF0009C911797019617969C938E931697CE01D7
:103F0000DF91CF911F910F910895FA01AA272830D0
:103F100051F1203181F1E8946F936E7F6E5F7F4F96
:103F20008F4F9F4FAF4FB1E03ED0B4E03CD0670F12
:103F3000781F891F9A1FA11D680F791F8A1F911D65
:103F4000A11D6A0F711D811D911DA11D20D009F4B5
:103F500068943F912AE0269F11243019305D3193F7
:103F6000DEF6CF010895462F4770405D4193B3E0E0
:103F70000FD0C9F7F6CF462F4F70405D4A3318F087
:103F8000495D31FD4052419302D0A9F7EACFB4E038
:103F9000A6959795879577956795BA95C9F70097F0
:103FA0006105710508959B01AC010A2E0694579591
:103FB000479537952795BA95C9F7620F731F841FE8
:0A3FC000951FA01D0895F894FFCF8F
:103FCA000000CC09200000000100080009000B00D5
:103FDA000D000F000E000700060004000200030097
:103FEA000A000C000500030005000A000C0000008E
:103FFA0001000200040006000700080009000B0087
:10400A000D000E000F004E41534120526F626F7433
:10401A0069637300436F6E74726F6C20426F783AF3
:10402A002056322E33005072696E7456616C3A20F3
:10403A0025640A00000000000610910F920F940FE9
:10404A00930F00000000C411CD10E110940FA311CA
:10405A003F065B4F666D7D077F6F777C395E7971AE
:10406A0053637265656E205541525420494E495436
:10407A003A202564200A004661696C3A21210D0024
:00000001FF
