:10000000B5C00000D2C00000D0C00000CEC00000CB
:10001000CCC00000CAC00000C8C00000C6C00000BC
:10002000C4C00000C2C00000C0C00000BEC00000CC
:10003000BCC00000BAC00000B8C00000B6C00000DC
:10004000B4C00000B2C00000B0C00000AEC00000EC
:100050000C948310AAC00000A8C000000C940310E8
:10006000A4C000000C949C110C94CE119EC0000002
:100070009CC000009BC0000098C0000096C000001B
:1000800094C0000092C0000090C000008EC000002C
:100090000C9443120C94751288C0000086C00000B6
:1000A00084C0000082C0000080C000007EC000004C
:1000B0007CC000007AC0000078C0000076C000005C
:1000C00074C0000072C0000070C000000C94EA12FE
:1000D0000C941C136AC000000C9491130C94C3136D
:1000E00064C000005F04680471047A0483048C0413
:1000F000CD049504A304B104BF0466064506480672
:100100004B064E065106540657065A065D06600613
:1001100093067206750678067B067E0681068406BF
:1001200087068A068D0634071307160719071C076A
:100130001F072207250728072B072E07550D5A0DE5
:100140005D0D610D640D780D6F0D720DE60DEB0DFB
:10015000EE0DF20D010EF50DF80DFB0D28112B1112
:100160002F11331137113B113F11431111241FBEC1
:10017000CFEFD1E2DEBFCDBF12E0A0E0B2E0EEEC07
:10018000F9E200E00BBF02C007900D92AA36B1075A
:10019000D9F729E0AAE6B2E001C01D92A739B2075B
:1001A000E1F70E941D0E0C94E5142ACF1F920F92C6
:1001B0000FB60F9211248F9381E080936A028F9182
:1001C0000F900FBE0F901F901895ECE7F0E0808124
:1001D000806480830895CF93DF93EC01ECE7F0E037
:1001E0009081907E9083ABE7B0E09C91977F9C9349
:1001F00090818881892B8083DF91CF910895EAE7F0
:10020000F0E08081876080830895EAE7F0E08081F4
:10021000806880830895CF93DF93EC01789468839E
:10022000D4DFEEE7F0E080818FEF8083CE01E7DF5F
:10023000CE01EBDFDF91CF91089510926A02EAE7D9
:10024000F0E080818860808380818064808308956D
:10025000CF93DF93EC01BFDFCE01EFDF80916A0225
:100260008823E1F3209178008091790090E0982F25
:100270008827820F911DDF91CF910895FC01808125
:10028000813049F018F0823059F00FC088E090E0DA
:100290000C94FC11089588E090E00C94A31208954A
:1002A00088E090E00C944A13089588E090E00C9464
:1002B000F1130895FC01608352834183DFCF0895D9
:1002C000FC018081813039F018F0823039F009C0AA
:1002D0000C94101208950C94B71208950C945E13A8
:1002E00008950C9405140895FC019081913041F01B
:1002F00018F0923049F00CC0862F0C942E120895FD
:10030000862F0C94D5120895862F0C947C13089593
:10031000862F0C9423140895EF92FF920F931F934E
:10032000CF93DF9300D01F92CDB7DEB7442381F186
:100330008B010E5F1F4FF0E020E07E0184E0E80EAD
:10034000F11CECE868E0D80112978C918983D80100
:100350008C918A8311978C918B83DE0111965D912C
:10036000362F752F7227822F90E095958795282F2D
:1003700070FF02C02E2F28275695315091F7AE15E9
:10038000BF0569F7FF5F0D5F1F4FF413DCCF01C09E
:1003900020E0822F0F900F900F90DF91CF911F914F
:1003A0000F91FF90EF900895BF92CF92DF92EF925E
:1003B000FF920F931F93CF93DF937C01EB01C42E29
:1003C000ABDFB82E66E0C7018FDF65E8C7018CDFC1
:1003D00064E0C70189DF61E0C70186DF9C2D990FCA
:1003E000692F6C0DC70180DFCC20F1F08E010E5F0C
:1003F0001F4F4C2D50E06A01CC0CDD1CC40ED51EE5
:10040000CC0EDD1E6881C7016FDFF8016081C70176
:100410006BDFF80131976081C70166DF23960D5FBE
:100420001F4FCC15DD0571F76B2DC7015DDFDF9127
:10043000CF911F910F91FF90EF90DF90CF90BF90E1
:100440000895CF92DF92EF92FF920F931F93CF9375
:10045000DF9300D01F92CDB7DEB76C017C018CE931
:10046000E80EF11CC7013ED3C7019ED38823D1F00B
:10047000C701B1D3082F882391F010E083E0C80EA4
:10048000D11C612FC70147D369837A838B83BE0157
:100490006F5F7F4FC601D5D21F5F1013F2CFC70128
:1004A00037D306C0C7012CD3882311F0C70130D33E
:1004B0000F900F900F90DF91CF911F910F91FF90B0
:1004C000EF90DF90CF900895CF93DF93EC01F8DEAB
:1004D000BC018827892B41F4CE01B3DFCE01F0DEC9
:1004E000BC018827892BC1F3DF91CF910895FF923A
:1004F0000F931F93CF93DF938C01E6DF0D5F1F4FA8
:10050000C801EAD2682F70E084E00E94610E14C036
:10051000C801C2D2D62FC72FF82E862F0E94A50E53
:10052000882351F02C2F30E0322F2227B9016F0D94
:10053000711D8D2F0E94610EC801CED28111E8CFAE
:10054000DF91CF911F910F91FF900895FB0132969B
:1005500081E0DF0112978C9311961C9210828F5FBD
:1005600033968630B1F785E090E0FA01918380837D
:1005700008950F931F93CF93DF93FB01329681E091
:10058000A0E0B0E0821739F0EF012297888321962E
:100590001882108211968F5F3396863099F7112357
:1005A0001CF4C02F312F02C0C02F312F822F90E0BA
:1005B000FC01EE0FFF1F8E0F9F1F0397FB01E80F3B
:1005C000F91F2083C18332831196FA01B183A0837E
:1005D000DF91CF911F910F910895CF93DF93EB019E
:1005E000FB01329681E0DF0112978C9311961C92E9
:1005F00010828F5F33968630B1F788E08A8B1B8A32
:100600001C8A86E090E0FA019183808360E070E0CC
:1006100088E00E94610EDF91CF910895AF92BF9262
:10062000CF92DF92EF92FF920F931F93CF93DF93BE
:10063000EB018A0180E20E947B0EBC0180E090E029
:100640000E943C146B017C0181E20E947B0E5C01E4
:1006500020E030E04EEC53E4C701B6010E943814AC
:10066000181644F520E030E049E154E4C701B60132
:100670000E949D1418161CF1B50180E090E00E94C4
:100680003C146B017C0120E030E047EE53E40E9413
:1006900038148823CCF020E030E84CE054E4C70163
:1006A000B6010E949D141816A4F42EEC9FEF4EEC98
:1006B0003FEF13C022E390E04EEC3FEF0EC02EEC74
:1006C0009FEF42E330E009C022E390E042E330E0F4
:1006D00004C020E090E040E030E081E0888349837E
:1006E0003A8382E08B832C839D8382E090E0F80143
:1006F00091838083DF91CF911F910F91FF90EF90B5
:10070000DF90CF90BF90AF9008950F931F9304E1B7
:1007100010E024E02EDF1F910F9108950F931F9397
:100720000CEE1FEF24E025DF1F910F9108950F932A
:100730001F9304E110E023E01CDF1F910F91089547
:100740000F931F930CEE1FEF23E013DF1F910F9108
:1007500008950F931F9302E310E025E00ADF1F9135
:100760000F9108950F931F930EEC1FEF25E001DF0B
:100770001F910F910895FB01D9018C918A3059F096
:1007800018F4893031F00DC08B3039F08C3039F0ED
:1007900008C081E007C082E005C083E003C084E0B8
:1007A00001C080E098E090838183128289E0838396
:1007B0001482158282E090E0FA0191838083D9014E
:1007C0006C9170E088E00C94610E0895EF92FF92B6
:1007D0000F931F93CF93DF93CDB7DEB7C454D109E6
:1007E0000FB6F894DEBF0FBECDBF8C0124961FAEAE
:1007F0001EAE249783E00E947B0E25968FAF25972F
:10080000813021F5AE014E5B5F4FBE016A5F7F4FC5
:10081000C801E3DE78018FECE80EF11CC7010E94ED
:10082000041148EE53E060E070E0C7010E94EA1056
:10083000C7010E94DF1060E070E086E00E94610E58
:1008400061E070E087E00E94610EE0C088E00E94F5
:100850007B0E892B81F088E00E947B0E8D839E01A8
:100860002B5F3F4FAE014E5B5F4FBE016A5F7F4F14
:10087000C80181DFCBC078018FECE80EF11CC70105
:100880000E94FD10882309F4C1C081E00E947B0E04
:10089000892B09F0BBC060E070E087E00E94610E28
:1008A0002596EFAD25974E2F50E0FA013297EB30A9
:1008B000F10508F07BC0EE58FF4F0C94C314AE0155
:1008C0004E5B5F4FBE016A5F7F4FC8011EDF76C07F
:1008D000AE014E5B5F4FBE016A5F7F4FC8011EDFF6
:1008E0006DC0AE014E5B5F4FBE016A5F7F4FC801B6
:1008F0001EDF64C0AE014E5B5F4FBE016A5F7F4F7B
:10090000C8011EDF5BC0AE014E5B5F4FBE016A5F78
:100910007F4FC8011EDF52C0AE014E5B5F4FBE016C
:100920006A5F7F4FC8011EDF49C089E08C839E014A
:100930002C5F3F4FAE014E5B5F4FBE016A5F7F4F42
:10094000C80119DF3BC08AE08B839E012D5F3F4FBA
:10095000AE014E5B5F4FBE016A5F7F4FC8010BDF88
:100960002DC08BE08A839E012E5F3F4FAE014E5B10
:100970005F4FBE016A5F7F4FC801FDDE1FC08CE084
:1009800089839E012F5F3F4FAE014E5B5F4FBE01DB
:100990006A5F7F4FC801EFDE11C0AE014E5B5F4F53
:1009A000BE016A5F7F4FC80139DE08C0AE014E5BF1
:1009B0005F4FBE016A5F7F4FC801C8DDCE018C5B0F
:1009C0009F4F1AD19923C4F0C7010E94041148EE29
:1009D00053E060E070E0C7010E94EA10C7010E9486
:1009E000DF1061E070E086E00E94610E61E070E07F
:1009F00087E00E94610E0AC060E070E086E00E941D
:100A0000610E60E070E087E00E94610E23964FADBA
:100A10002397BE016A5F7F4FC801C6DCCC5BDF4F06
:100A20000FB6F894DEBF0FBECDBFDF91CF911F91FF
:100A30000F91FF90EF900895FC01108211821282B5
:100A40000895CF93DF93DC0111962C91119781E0EB
:100A5000820F11968C93119730E02F5F3F4FF90171
:100A6000EE0FFF1F2E0F3F1FFD01E20FF31FEB01E3
:100A7000288139814A81208331834283823318F06F
:100A800011961C92119712968C9112978F5F129665
:100A90008C93DF91CF910895DC019C9181E0890FC7
:100AA000292F30E0823310F48C9301C01C921296EF
:100AB0008C911297815012968C9312972F5F3F4F13
:100AC000F901EE0FFF1F2E0F3F1FFD01E20FF31F75
:100AD0006081718182810895FC0182810895FC0109
:100AE00012AA0895FC0122A9211102C0663039F42E
:100AF00031E0320FFC0132ABE20FF11D608308954B
:100B000021E0FC0182A9823308F420E0822F0895BD
:100B1000FC0112AA0895262F220F620F6B5FFC01C1
:100B2000E60FF11D7181608182810895EF92FF923D
:100B30000F931F93CF93DF937C01FC01C2A90C2F6D
:100B400010E00150110906301105FCF0DC0115968A
:100B5000E801C80FD91F90E088E0F0E0ECE86D9163
:100B6000482F5F2F762F7927292F30E0359527954D
:100B7000922F70FF02C09E2F922766954150510917
:100B800089F7AC17BD0759F701C090E0F701E00FF6
:100B9000F11F81E02081291380E0DF91CF911F9127
:100BA0000F91FF90EF900895FC0122A9263068F084
:100BB0003281313061F4448150E04A5F5F4F30E070
:100BC0004217530731F4B2CF089580E0089580E0D2
:100BD000089580E00895CF93DF93EC01E5DF88234B
:100BE00039F08C819BEA899F812D1124869501C063
:100BF00080E0DF91CF910895FC015081E1E4F2E0C3
:100C000020E030E08FEF9FEF4191451302C0822F2B
:100C1000932F2F5F3F4F20313105B1F70895CF93C8
:100C2000DF93EC0178940E94520EBE01CE018F52E8
:100C30009F4FF8D2BE01CE018B599E4FC5D4AE0155
:100C400061E0CE01019636DBDF91CF9108958C01F2
:100C50007C018BE9E81A8EEFF80AC701E8D5E801B4
:100C600021960F521F4FCE0142DCC801BBD3CE01EB
:100C7000ADDDC70162D5F7CF90E08B30910518F557
:100C8000FC01E358FF4F0C94C31484E290E00895F4
:100C900087E290E008958AE290E008958DE290E086
:100CA000089580E390E0089583E390E0089581E063
:100CB00091E0089584E091E0089587E091E008953F
:100CC0008AE091E008958BE692E0089581E290E059
:100CD000089590E08B30910518F5FC01E857FF4F1F
:100CE0000C94C31485E290E0089588E290E00895A2
:100CF0008BE290E008958EE290E0089581E390E029
:100D0000089584E390E0089582E091E0089585E0FD
:100D100091E0089588E091E008958BE091E00895D6
:100D20008BE692E0089582E290E008950F931F937E
:100D3000CF93DF93FC01C62FD42F6083418322839E
:100D4000211116C0862F98DFFC01908121E030E050
:100D500002C0220F331FDA95E2F7D22FD0959D23E0
:100D600090838C2FB6DFFC0120812D23208325C0AA
:100D70002230B1F4862F80DFFC01808101E010E099
:100D800002C0000F111FDA95E2F7902F909598237B
:100D900090838C2F9EDFFC012081022B00830DC0ED
:100DA000862F6ADFFC01408121E030E002C0220F83
:100DB000331FDA95E2F7242B2083DF91CF911F9127
:100DC0000F910895CF93FC01C1818081662369F062
:100DD00080DFFC01408121E030E002C0220F331FA0
:100DE000CA95E2F7242B20830DC073DFFC014081FC
:100DF00021E030E002C0220F331FCA95E2F72095B0
:100E000024232083CF910895DC0111962C91119712
:100E1000EC918E2F90E08B30910518F5FC01ED568A
:100E2000FF4F0C94C314E3E2F0E020C0E6E2F0E0F0
:100E30001DC0E9E2F0E01AC0ECE2F0E017C0EFE21A
:100E4000F0E014C0E2E3F0E011C0E0E0F1E00EC039
:100E5000E3E0F1E00BC0E6E0F1E008C0E9E0F1E03A
:100E600005C0EBE6F2E002C0E0E2F0E0808190E055
:100E700002C0959587952A95E2F781700895C4DFA1
:100E800091E089270895FC016193CF0150C5089531
:100E9000EF92FF920F931F93CF93DF9300D0CDB7C4
:100EA000DEB7E62EF42E8C010F5F1F4FFC01608130
:100EB000C8013DD5E982FA8242E0BE016F5F7F4FF3
:100EC000C801B9D50F900F90DF91CF911F910F916D
:100ED000FF90EF9008950F931F93CF93DF9300D06F
:100EE000CDB7DEB76A838C010F5F1F4FFC016081B5
:100EF000C8011DD541E0BE016E5F7F4FC8019BD583
:100F000041E0BE016F5F7F4FC80133D689810F90EA
:100F10000F90DF91CF911F910F910895CF93DF93A1
:100F2000EC018881882311F063E101C062E18B81CB
:100F30009C81D1DF282F30E0C901098002C095953E
:100F400087950A94E2F78170DF91CF9108951F93FE
:100F5000CF93DF93EC018881882311F013E101C066
:100F600012E1662391F0612F8B819C81B4DF41E017
:100F700050E0098002C0440F551F0A94E2F7482B45
:100F8000612F8B819C8184DF12C0612F8B819C81BA
:100F9000A2DF41E050E0098002C0440F551F0A94CF
:100FA000E2F740954823612F8B819C8171DFDF91AF
:100FB000CF911F9108951F93CF93DF93EC016A8324
:100FC00011E08881811101C010E0611112C0612F10
:100FD0008B819C8180DF41E050E0098002C0440F9A
:100FE000551F0A94E2F7482B612F8B819C8150DFBB
:100FF00012C0612F8B819C816EDF41E050E009803F
:1010000002C0440F551F0A94E2F740954823612F10
:101010008B819C813DDFDF91CF911F9108950F93CC
:10102000FC017483638340832183602FC4DF0F91AD
:101030000895CF93DF93EC0160E2039624DF67E22B
:10104000CE01439620DFDF91CF910895EF92FF927A
:101050000F93CF93DF93EC017C0183E0E80EF11C4A
:1010600000E020E040E0B701CE018396D8DF22E027
:1010700040E0B701CE018896D2DF24E040E0B7011E
:10108000CE018D96CCDF26E040E0B701CE01C296BE
:10109000C6DF20E041E0B701CE01C796C0DF22E005
:1010A00041E0B701CE01CC96BADF24E041E0B701C0
:1010B000CE018F5B9F4FB3DF26E041E0B701CE0149
:1010C0008A5B9F4FACDF7E0183E1E80EF11C20E0DC
:1010D00040E0B701CE01855B9F4FA1DF22E040E0F9
:1010E000B701CE01805B9F4F9ADF24E040E0B7015B
:1010F000CE018B5A9F4F93DF26E040E0B701CE012F
:10110000865A9F4F8CDF20E041E0B701CE01815A23
:101110009F4F85DF22E041E0B701CE018C599F4F00
:101120007EDF24E041E0B701CE0187599F4F77DF92
:1011300026E041E0B701CE0182599F4F70DFDF9179
:10114000CF910F91FF90EF900895CF93DF93EC0133
:1011500022E042E069E08D589F4FE8DD22E046E062
:1011600061E0CE018A589F4FE1DD22E044E061E07A
:10117000CE0187589F4FDADD22E040E061E0CE01EA
:1011800084589F4FD3DD22E044E064E0CE018158D3
:101190009F4FCCDD22E045E061E0CE018E579F4FAE
:1011A000C5DD22E046E064E0CE018B579F4FBEDDF7
:1011B00022E047E064E0CE0188579F4FB7DD22E090
:1011C00045E064E0CE0185579F4FB0DDDF91CF91C0
:1011D0000895CF93DF93EC0160E081579F4F1BD8B8
:1011E00061E0CE0182579F4F16D866E0CE0180574E
:1011F0009F4F11D867E0CE018F569F4F0CD8DF91DB
:10120000CF910895CF93DF93EC0162E08E569F4F0C
:1012100002D865E0CE018D569F4F0E940B01DF91F1
:10122000CF910895CF93DF93EC017A83698301DF37
:10123000CE010CDFCE0189DFCE01CBDFCE01E2DFB4
:10124000DF91CF910895AF92BF92CF92DF92EF924C
:10125000FF920F931F93CF93DF93FC012081211105
:1012600021C05C018C010D5D1F4FC0E0D0E0E12C7E
:10127000F12CC12CD12CC80151DE811104C0FFEF2B
:10128000EF1AFF0A6E0121960B5F1F4FC031D10587
:1012900091F7EA94EF2831F4F601E65AFD4F808188
:1012A000F5018083DF91CF911F910F91FF90EF9017
:1012B000DF90CF90BF90AF900895AF92BF92CF9242
:1012C000DF92EF92FF920F931F93CF93DF93FC0176
:1012D0002081211121C06C018C010D581F4FC0E0ED
:1012E000D0E0E12CF12CA12CB12CC801C8DD882361
:1012F00021F0FFEFEF1AFF0A5E0121960D5F1F4FED
:10130000C930D10591F7EA94EF2831F4F501EF5A8D
:10131000FD4F8081F6018083DF91CF911F910F9166
:10132000FF90EF90DF90CF90BF90AF900895AF9275
:10133000BF92CF92DF92EF92FF920F931F93CF93C2
:10134000DF93EC0182579F4F0E9428018C01CE0150
:1013500081579F4F0E9428017C01CE0180579F4FEB
:101360000E9428015C01CE018F569F4F0E942801E8
:101370006C01B80180E2A5D4B70181E2A2D4B50125
:1013800082E29FD4B60183E29CD4CE018E569F4F59
:101390000E942801BC0184E294D4CE018D569F4F57
:1013A0000E942801BC0185E28CD4888181110FC084
:1013B0000F5C11400336110540F48FECE81A81E010
:1013C000F80A83E6E816F10410F088E08883DF91DC
:1013D000CF911F910F91FF90EF90DF90CF90BF9032
:1013E000AF900895CF93DF93EC01188266DFCE01B2
:1013F0002ADFCE019CDF688170E083E062D4DF9158
:10140000CF910895CF93DF93EC0160E2895F9D4F08
:101410003ADD67E2CE01895E9D4F35DDDF91CF91E8
:101420000895EF92FF920F93CF93DF93EC017C012D
:1014300089EFE81A8DEFF80A01E021E040E0B701FA
:10144000CE01895D9D4FEBDD23E040E0B701CE0189
:10145000845D9D4FE4DD25E040E0B701CE018F5C67
:101460009D4FDDDD27E040E0B701CE018A5C9D4F56
:10147000D6DD21E041E0B701CE01855C9D4FCFDD97
:1014800023E041E0B701CE01805C9D4FC8DD25E03F
:1014900041E0B701CE018B5B9D4FC1DD27E041E00C
:1014A000B701CE01865B9D4FBADD7E0189EEE81A59
:1014B0008DEFF80A21E040E0B701CE01815B9D4F3E
:1014C000AEDD23E040E0B701CE018C5A9D4FA7DD91
:1014D00025E040E0B701CE01875A9D4FA0DD27E00F
:1014E00040E0B701CE01825A9D4F99DD21E041E0F5
:1014F000B701CE018D599D4F92DD23E041E0B70148
:10150000CE0188599D4F8BDD25E041E0B701CE012A
:1015100083599D4F84DD27E041E0B701CE018E580D
:101520009D4F7DDDDF91CF910F91FF90EF9008955A
:101530000F931F93CF93DF938C01EC01C958DD4FBC
:1015400021E040E062E0CE01F1DB21E041E062E039
:10155000C80186589D4FEADB21E042E062E0C80105
:1015600083589D4FE3DB21E043E062E0C8018058EF
:101570009D4FDCDB21E044E062E0C8018D579D4FC8
:10158000D5DB21E045E062E0C8018A579D4FCEDB04
:1015900021E046E062E0C80187579D4FC7DB21E0AC
:1015A00047E062E0C80184579D4FC0DB01571D4FE3
:1015B00060E0CE0107DC2396C017D107C9F7DF91A1
:1015C000CF911F910F9108950F931F93CF93DF93A6
:1015D000EC018B017983688315DFCE0122DFCE0118
:1015E000A7DF43E0B801CE010296EDD3DF91CF91A2
:1015F0001F910F910895CF93DF93EC0184E07BD38B
:10160000892B59F061E0CE0189589D4FDBDB60E00A
:10161000CE018D579D4FD6DB0AC060E0CE018958C0
:101620009D4FD0DB61E0CE018D579D4FCBDB87E036
:1016300062D3892B59F060E0CE0180589D4FC2DB08
:1016400061E0CE0184579D4FBDDB0AC061E0CE0151
:1016500080589D4FB7DB60E0CE0184579D4FB2DBD1
:1016600081E049D3892B59F060E0CE0183589D4F2A
:10167000A9DB61E0CE0187579D4FA4DB0AC061E082
:10168000CE0183589D4F9EDB60E0CE0187579D4F72
:1016900099DBDF91CF9108950F931F93CF93DF9341
:1016A000EC01C95DDD4F8C0109581D4F60E0CE0192
:1016B0004EDC2596C017D107C9F7DF91CF911F9156
:1016C0000F9108950F931F93CF93DF931F92CDB780
:1016D000DEB78C0186E00FD3892B31F4C801DCDF43
:1016E00010926D0210926C0283E005D389838823E7
:1016F000F1F0CE01019680DA9923CCF020916C02B2
:1017000030916D02232B99F421E030E030936D028B
:1017100020936C029C01220F331F220F331F820F74
:10172000931F895D9D4F61E0800F911F10DC0F902A
:10173000DF91CF911F910F910895CF93DF93EC012B
:10174000C1DFCE0158DFCE01029621D4DF91CF91C7
:101750000895AF92BF92CF92DF92EF92FF920F93D4
:101760001F93CF93DF93CDB7DEB7A0970FB6F89452
:10177000DEBF0FBECDBF6C0120E2E1E0F2E0CE01A2
:101780000196DC0101900D922A95E1F78E010F5D23
:101790001F4F7C015801F501929182915F019C01DC
:1017A000220F331F220F331F820F931F895D9D4F1E
:1017B00061E08C0D9D1DCBDBFFEF20E782E0F15057
:1017C00020408040E1F700C00000AE14BF0419F7CC
:1017D000F801329122918F01C901880F991F880F5A
:1017E000991F280F391FC901895D9D4F60E08C0D3D
:1017F0009D1DADDBFFEF20E782E0F15020408040EF
:10180000E1F700C00000E016F10611F7A0960FB650
:10181000F894DEBF0FBECDBFDF91CF911F910F9126
:10182000FF90EF90DF90CF90BF90AF9008954F92D0
:101830005F926F927F928F929F92AF92BF92CF9260
:10184000DF92EF92FF920F931F93CF93DF937C0170
:10185000612C712C412C512C0F2EF3E0AF2EB12CAA
:10186000F02D3EC0C114D10421F0E501C819D909F9
:1018700001C0E4018E01000F111F0C0F1D1F09583C
:101880001D4F0E0D1F1D61E0C8019CDA2496CE018C
:10189000880F991FC80FD91FC958DD4FCE0DDF1D06
:1018A00061E0CE018FDA2FEF80E792E02150804097
:1018B0009040E1F700C0000060E0C80183DA60E01A
:1018C000CE0180DA2FEF821A920A84E08816910402
:1018D00049F69FEF691A790A24E06216710439F01B
:1018E000842C952C630181E0C822DD24BBCFC70185
:1018F00030DFDF91CF911F910F91FF90EF90DF903C
:10190000CF90BF90AF909F908F907F906F905F909F
:101910004F900895442351F0A82FB92FFB01640F75
:10192000711D8D918193E617F707D9F70895660F1A
:10193000FC0161830895FC01611104C08181816013
:10194000818303C081818E7F818381818093BB00ED
:1019500084E88093BC0083E080830895FC01848543
:1019600090E0258530E0215031098217930731F44A
:10197000ACEBB0E09C9180E489278C9384E8809361
:10198000BC0086E080830895FC0184E98093BC005C
:101990001486108286858F5F868785E38A95F1F7A6
:1019A00000000895FC019091BC00992354F48091AB
:1019B000B900887F883019F482E080830895CF01D0
:1019C000E3CF0895FC019091BC00992354F48091D9
:1019D000B900887F883119F484E080830895CF01AD
:1019E000D3CF0895FC019091BC00992354F48091C9
:1019F000B900887F803419F485E080830895CF0191
:101A0000C3CF08952091BC002223A4F42091B900F3
:101A1000287F283271F4FC0124852F5F24873585C7
:101A2000231718F424E02083089527E0FC01208385
:101A30000895AACF08959F92AF92BF92CF92DF925E
:101A4000EF92FF920F931F93CF93DF93EC017B01F3
:101A5000142FBC016E5F7F4FC7015CDF88E4809369
:101A6000B8001D871C861E861882E0E00F2EFBEB57
:101A7000CF2ED12CF02D0CEB10E00F2EF4E89F2E82
:101A8000F02D0F2EF6E0AF2EF02D0F2EF4EEBF2E20
:101A9000F02D8E858530A8F58E2F90E08830910549
:101AA00038F5FC01E256FF4F6EC7F801B08281E0C5
:101AB00088832DC0CE0176DF1EC061E0CE013BDF02
:101AC0001AC0CE017FDF17C08C85F701E80FF11D2A
:101AD0008081F6018083F8019082A88218C0CE012F
:101AE00091DF09C084E98093BC0088E088830CC042
:101AF00088E0888309C0E881E83059F681E090E009
:101B000008C080E090E005C081E090E002C0E8817C
:101B1000C0CFDF91CF911F910F91FF90EF90DF9099
:101B2000CF90BF90AF909F9008952091BC0022234A
:101B3000FCF42091BC0026FF03C040E565E002C034
:101B400048E567E02091B900287F30E050E0241795
:101B5000350769F4FC01248531E0320F3487309178
:101B6000BB00E20FF11D3283FC01608308950CCFAE
:101B700008959F92AF92BF92CF92DF92EF92FF9221
:101B80000F931F93CF93DF93EC016B01A42E88E496
:101B90008093B8004D871C861E861882E0E00F2EC9
:101BA000FCEBEF2EF12CF02D0F2EF4EE9F2EF02DEE
:101BB000BB24B3948E85853090F50E2F10E008304D
:101BC0001105F8F4F801EA55FF4FDDC6F7019082E0
:101BD000B882EB2DEFCFCE01E5DE16C060E0CE017E
:101BE000AADE12C0CE01FEDE0FC0CE01B7DE0CC0F1
:101BF000CE019BDF09C084E98093BC0088E0888324
:101C000006C088E0888303C0E881E83099F64A2D51
:101C1000B601CE0102967EDE81E090E002C080E057
:101C200090E0DF91CF911F910F91FF90EF90DF90A7
:101C3000CF90BF90AF909F900895CF93DF93CDB793
:101C4000DEB7C45FD3400FB6F894DEBF0FBECDBF82
:101C50002FEF83ED90E3215080409040E1F700C0EA
:101C60000000CE0105960E941C05CE0182569F4FB2
:101C70000E946F05CE018F529F4FD9D2CE0101969F
:101C80000E940F06CE0101960E94270680E090E098
:101C9000CC50DC4F0FB6F894DEBF0FBECDBFDF9146
:101CA000CF910895EEE6F2E08EE698E01182108280
:101CB00013821282158214823696E817F907B1F75B
:101CC000089590E0FC01EE0FFF1FE80FF91FEE0FE3
:101CD000FF1FE259FD4F01C0FC01848195810097EF
:101CE000D9F7309739F0718360830280F381E02D5A
:101CF0003097C9F7089590E0FC01EE0FFF1FE80F41
:101D0000F91FEE0FFF1FE259FD4F80819181089569
:101D100090E0FC01EE0FFF1FE80FF91FEE0FFF1F11
:101D2000E259FD4F01C0FC01828193810097D9F7F0
:101D300070E0CB01880F991F680F791F660F771F1E
:101D400062597D4F73836283089581E00895CF9334
:101D5000DF93EC01FC0135969C012B5F3D4F119206
:101D60001192E217F307D9F780E09EE0988B8F87F6
:101D700065E084E0CDDF83E09EE09A8B898BFE01F5
:101D8000EB5BFF4F80E09BE091838083329681E0A4
:101D90009BE091838083369682E09BE091838083F1
:101DA000349783E09BE091838083329684E09BE0CC
:101DB00091838083C15BDF4F85E09BE099838883BB
:101DC000DF91CF910895CF93C42FFC01118210822F
:101DD000738362834483BBDFC13041F018F0C230AB
:101DE00049F00CC087E690E007D30BC087E690E08F
:101DF000AAD307C087E690E04DD403C087E690E001
:101E0000F0D4CF910895FC019481913039F018F00D
:101E1000923039F009C0862F21C30895862FC5C39B
:101E20000895862F69C40895862F0DC50895FC0175
:101E30008481813041F028F0823039F0833039F0EC
:101E400008C0EEC2089593C3089538C40895DDC450
:101E5000089580E00895EF92FF921F93CF93DF9350
:101E60001F92CDB7DEB77C0168EC70E0CE01019621
:101E700041D1CE010196B1D00AC0C701D8DF282FC9
:101E800030E02531310561F02630310541F0CE01D9
:101E90000196A7D0182F882381F310E001C011E02C
:101EA000812F0F90DF91CF911F91FF90EF900895B8
:101EB000EF92FF920F931F93CF93DF939C0180913A
:101EC0000002882341F1EB018901E12CF12C6881AA
:101ED000C80199DF6981C80196DF6A81C80193DF73
:101EE0006B81C80190DF6C81C8018DDF6D81C801F5
:101EF0008ADFC801B0DF9FEFE91AF90A811105C036
:101F00009AE0E916F10419F704C09AE0E916F10421
:101F100014F010920002DF91CF911F910F91FF906A
:101F2000EF900895EF92FF920F931F93CF93DF935B
:101F300000D000D000D0CDB7DEB77C01FB01EE0FA2
:101F4000FF1FE80FF91F058116810115110591F09A
:101F5000862FD1DE21E029831A830B839C838D8316
:101F600020272127282792279E83BE016F5F7F4F5E
:101F7000C7019EDF26960FB6F894DEBF0FBECDBF19
:101F8000DF91CF911F910F91FF90EF9008950F93E4
:101F90001F93CF93DF9320916E0830916F082A3002
:101FA00031052CF010926F0810926E0811C08C0150
:101FB0002F5F3F4F30936F0820936E08C0E0D0E052
:101FC000BE01C801AFDF2196C11581E0D807C1F776
:101FD000DF91CF911F910F910895A2D181E029C186
:101FE000089555D191E0811190E0892F08951092C4
:101FF000740810927508109276081092770896D19E
:1020000080E017C108951F920F920FB60F9211240E
:102010000BB60F922F933F934F935F936F937F93E2
:102020008F939F93AF93BF93EF93FF938091740827
:1020300090917508A0917608B09177080196A11D3E
:10204000B11D8093740890937508A0937608B0939F
:1020500077084091740850917508609176087091E6
:1020600077088091700890917108A0917208B091E2
:10207000730884179507A607B70708F4B8DFFF9120
:10208000EF91BF91AF919F918F917F916F915F91F0
:102090004F913F912F910F900BBE0F900FBE0F905D
:1020A0001F901895611571058105910571F09B01CF
:1020B000AC0124368BE0380781E04807510548F031
:1020C00023E63BE041E050E004C021E030E040E0A6
:1020D00050E0A0E8BEE360D42FEF30E040E050E0F5
:1020E00030D4209370083093710840937208509355
:1020F0007308089580E090E0D5DF80E0CBD080E0E9
:10210000F8D075CF08951F920F920FB60F92112439
:102110000BB60F924F935F936F937F938F939F9321
:10212000AF93BF93EF93FF9380917C0890917D08CC
:10213000A0917E08B0917F080196A11DB11D8093EA
:102140007C0890937D08A0937E08B0937F0840910F
:102150007C0850917D0860917E0870917F08809185
:10216000780890917908A0917A08B0917B0884173B
:102170009507A607B70790F410927C0810927D0887
:1021800010927E0810927F08EFE6F0E080818E7F4B
:102190008083E1E8F0E08081887F8083FF91EF9188
:1021A000BF91AF919F918F917F916F915F914F916F
:1021B0000F900BBE0F900FBE0F901F901895EFE67B
:1021C000F0E0808181608083E1E8F0E080818160DF
:1021D00080830895A0E8BEE39A01AB01DDD32FEF21
:1021E0003FEF40E050E0ADD320937808309379087A
:1021F00040937A0850937B080895909181009770DE
:1022000081E009F080E0089510927C0810927D082A
:1022100010927E0810927F08EFE6F0E080818E7FBA
:102220008083E1E8F0E08081887F80830895ECCFAF
:102230000895E82F8093820885B5887F85BD8E2F0D
:1022400090E08830910510F5FC01E255FF4F9BC3EB
:1022500085B585BD089585B5816085BD089585B531
:10226000826085BD089585B5836085BD089585B577
:10227000846085BD089585B5856085BD089585B563
:10228000866085BD089585B5876085BD0895809178
:10229000820808958093810894B59C7F94BD95B57C
:1022A000977F95BD833099F028F4813041F08230DA
:1022B00051F00895843091F08530A1F0089584B5EF
:1022C000826084BD089584B5816084BD089584B51D
:1022D000816084BD85B5886085BD089584B58360BF
:1022E00084BD089584B5836084BD85B5886085BD4F
:1022F000089594B59F7394BD80938008823041F017
:10230000833051F0813059F484B5806484BD0895E0
:1023100084B5806884BD089584B5806C84BD0895BB
:10232000EEE6F0E08081816080830895EEE6F0E0E3
:1023300080818E7F808308951F920F920FB60F9237
:1023400011240BB60F922F938F939F93EF93FF93CC
:102350008091C0002091C6008C71E0918508EF5FEC
:10236000EF7190918408E91739F0E0938508F0E067
:10237000EA57F74F208301C082E090918308892BB0
:1023800080938308FF91EF919F918F912F910F90F0
:102390000BBE0F900FBE0F901F9018951F920F92BB
:1023A0000FB60F9211240BB60F928F939F93EF935A
:1023B000FF939091A7088091A608981769F0E09183
:1023C000A608EF5FEF71E093A608F0E0E855F74F3D
:1023D00080818093C60005C0E1ECF0E080818F7DB4
:1023E0008083FF91EF919F918F910F900BBE0F9083
:1023F0000FBE0F901F9018951092A7081092A60874
:10240000109285081092840890789093C50080936C
:10241000C40088E98093C10086E08093C2000895DB
:1024200090918508809184089817A9F0809184087C
:102430008F5F8F71E82FF0E0EA57F74F208180938C
:102440008408809183081092830890E0982F882751
:10245000820F911D089580E091E008952091A708D2
:102460002F5F2F719091A6082917E1F3E22FF0E07A
:10247000E855F74F80832093A708E1ECF0E08081D6
:102480008062808308951F920F920FB60F921124DD
:102490000BB60F922F938F939F93EF93FF9380919F
:1024A000C8002091CE008C71E091CA08EF5FEF71F7
:1024B0009091C908E91739F0E093CA08F0E0E553B4
:1024C000F74F208301C082E09091C808892B809348
:1024D000C808FF91EF919F918F912F910F900BBEA4
:1024E0000F900FBE0F901F9018951F920F920FB66E
:1024F0000F9211240BB60F928F939F93EF93FF933C
:102500009091EC088091EB08981769F0E091EB0846
:10251000EF5FEF71E093EB08F0E0E351F74F80815C
:102520008093CE0005C0E9ECF0E080818F7D808350
:10253000FF91EF919F918F910F900BBE0F900FBE67
:102540000F901F9018951092EC081092EB081092C3
:10255000CA081092C90890789093CD008093CC005F
:1025600088E98093C90086E08093CA00089590911D
:10257000CA088091C9089817A9F08091C9088F5F8F
:102580008F71E82FF0E0E553F74F20818093C90861
:102590008091C8081092C80890E0982F8827820F71
:1025A000911D089580E091E008952091EC082F5F3F
:1025B0002F719091EB082917E1F3E22FF0E0E3513E
:1025C000F74F80832093EC08E9ECF0E08081806293
:1025D000808308951F920F920FB60F9211240BB6AD
:1025E0000F922F938F939F93EF93FF938091D0003F
:1025F0002091D6008C71E0910F09EF5FEF719091FF
:102600000E09E91739F0E0930F09F0E0E05FF64FAB
:10261000208301C082E090910D09892B80930D09E0
:10262000FF91EF919F918F912F910F900BBE0F9083
:102630000FBE0F901F9018951F920F920FB60F921A
:1026400011240BB60F928F939F93EF93FF9390916A
:10265000310980913009981769F0E0913009EF5FF6
:10266000EF71E0933009F0E0EE5CF64F80818093EB
:10267000D60005C0E1EDF0E080818F7D8083FF9181
:10268000EF919F918F910F900BBE0F900FBE0F9007
:102690001F901895109231091092300910920F096D
:1026A00010920E0990789093D5008093D40088E919
:1026B0008093D10086E08093D200089590910F0915
:1026C00080910E099817A9F080910E098F5F8F7184
:1026D000E82FF0E0E05FF64F208180930E098091B3
:1026E0000D0910920D0990E0982F8827820F911DF7
:1026F000089580E091E00895209131092F5F2F71B6
:10270000909130092917E1F3E22FF0E0EE5CF64FEB
:10271000808320933109E1EDF0E080818062808345
:1027200008951F920F920FB60F9211240BB60F92BD
:102730002F938F939F93EF93FF938091300120917C
:1027400036018C71E0915409EF5FEF71909153095C
:10275000E91739F0E0935409F0E0EB5AF64F208383
:1027600001C082E090915209892B80935209FF9118
:10277000EF919F918F912F910F900BBE0F900FBEF5
:102780000F901F9018951F920F920FB60F92112461
:102790000BB60F928F939F93EF93FF9390917609CF
:1027A00080917509981769F0E0917509EF5FEF71F5
:1027B000E0937509F0E0E958F64F80818093360187
:1027C00005C0E1E3F1E080818F7D8083FF91EF918F
:1027D0009F918F910F900BBE0F900FBE0F901F9087
:1027E000189510927609109275091092540910925A
:1027F00053099078909335018093340188E9809350
:10280000310186E0809332010895909154098091BE
:1028100053099817A9F0809153098F5F8F71E82FA2
:10282000F0E0EB5AF64F20818093530980915209D2
:102830001092520990E0982F8827820F911D0895D9
:1028400080E091E00895209176092F5F2F7190919B
:1028500075092917E1F3E22FF0E0E958F64F80837C
:1028600020937609E1E3F1E080818062808308951E
:1028700040D008F481E00895E89409C097FB3EF445
:1028800090958095709561957F4F8F4F9F4F9923BD
:10289000A9F0F92F96E9BB279395F695879577953B
:1028A0006795B795F111F8CFFAF4BB0F11F460FFFB
:1028B0001BC06F5F7F4F8F4F9F4F16C0882311F053
:1028C00096E911C0772321F09EE8872F762F05C067
:1028D000662371F096E8862F70E060E02AF09A9502
:1028E000660F771F881FDAF7880F9695879597F9F7
:1028F0000895990F0008550FAA0BE0E8FEEF161691
:102900001706E807F907C0F012161306E407F507E3
:1029100098F0621B730B840B950B39F40A2661F057
:10292000232B242B252B21F408950A2609F4A140FA
:10293000A6958FEF811D811D0895DBDF08F48FEFD1
:102940000895A1E21A2EAA1BBB1BFD010DC0AA1FF0
:10295000BB1FEE1FFF1FA217B307E407F50720F008
:10296000A21BB30BE40BF50B661F771F881F991F83
:102970001A9469F760957095809590959B01AC01CC
:10298000BD01CF010895EE0FFF1F0024001C0BBEF8
:102990000790F691E02D099409D0A59F900DB49F62
:1029A000900DA49F800D911D11240895A29FB00148
:1029B000B39FC001A39F700D811D1124911DB29F73
:0E29C000700D811D1124911D0895F894FFCF14
:1029CE000100000100080009000B000D000F000EB1
:1029DE0000070006000400020003000A000C0005B8
:1029EE0000030005000A000C0000000100020004B4
:1029FE000006000700080009000B000D000E000F76
:102A0E0000090A0B0C0D0E0F1011121314151617C8
:102A1E0018010607040302050607090A0B0C0D0E22
:0A2A2E000F101112131415161718DB
:00000001FF
